:020000040800F2
:1000000000500020391200087D11000889110008F5
:100010008F110008951100089B11000800000000D6
:10002000000000000000000000000000A111000816
:10003000AD11000800000000B9110008C51100084A
:100040008112000881120008811200088112000844
:100050008112000881120008811200088112000834
:100060008112000881120008811200088112000824
:100070008112000881120008811200088112000814
:100080008112000881120008811200088112000804
:1000900081120008811200088112000881120008F4
:1000A00081120008811200088112000881120008E4
:1000B00081120008811200088112000881120008D4
:1000C00081120008811200088112000881120008C4
:1000D00081120008811200088112000881120008B4
:1000E000811200088112000881120008000000003F
:1000F0000000000000000000000000000000000000
:0C01000000000000000000005FF808F1A3
:10010C0010B5054C237833B9044B13B10448AFF345
:10011C0000800123237010BD1C0000200000000093
:10012C006C31000808B5034B1BB103490348AFF30E
:10013C00008008BD00000000200000206C31000889
:10014C0080F0004002E000BF81F0004142001FBF80
:10015C005FEA410392EA030F7FEA226C7FEA236C89
:10016C006AD04FEA1262D2EB1363C1BFD21841407E
:10017C0048404140B8BF5B42192B88BF704710F014
:10018C00004F40F4000020F07F4018BF404211F0B7
:10019C00004F41F4000121F07F4118BF494292EA1F
:1001AC00030F3FD0A2F1010241FA03FC10EB0C004B
:1001BC00C3F1200301FA03F100F0004302D54942D8
:1001CC0060EB4000B0F5000F13D3B0F1807F06D385
:1001DC0040084FEA310102F10102FE2A51D2B1F17D
:1001EC00004F40EBC25008BF20F0010040EA030072
:1001FC007047490040EB000010F4000FA2F101021F
:10020C00EDD1B0FA80FCACF1080CB2EB0C0200FAA8
:10021C000CF0AABF00EBC25052421843BCBFD040F6
:10022C001843704792F0000F81F4000106BF80F470
:10023C0000000132013BB5E74FEA41037FEA226C33
:10024C0018BF7FEA236C21D092EA030F04D092F0FE
:10025C00000F08BF0846704790EA010F1CBF002032
:10026C00704712F07F4F04D1400028BF40F000408F
:10027C00704712F100723CBF00F50000704700F0AF
:10028C00004343F0FE4040F4000070477FEA2262D6
:10029C0016BF08467FEA23630146420206BF5FEAA7
:1002AC00412390EA010F40F4800070474FF00003A7
:1002BC0004E000BF10F0004348BF40425FEA000C6E
:1002CC0008BF704743F0964301464FF000001CE016
:1002DC0050EA010208BF70474FF000030AE000BF6C
:1002EC0050EA010208BF704711F0004302D54042AA
:1002FC0061EB41015FEA010C02BF8446014600201C
:10030C0043F0B64308BFA3F18053A3F50003BCFA36
:10031C008CF2083AA3EBC25310DB01FA02FC6344E3
:10032C0000FA02FCC2F12002BCF1004F20FA02F2EA
:10033C0043EB020008BF20F00100704702F12002DD
:10034C0001FA02FCC2F1200250EA4C0021FA02F23E
:10035C0043EB020008BF20EADC7070474FF0FF0C43
:10036C001CEAD0521EBF1CEAD15392EA0C0F93EA3E
:10037C000C0F6FD01A4480EA010C400218BF5FEAE0
:10038C0041211ED04FF0006343EA501043EA511153
:10039C00A0FB01310CF00040B1F5000F3EBF49004D
:1003AC0041EAD3715B0040EA010062F17F02FD2A51
:1003BC001DD8B3F1004F40EBC25008BF20F0010034
:1003CC00704790F0000F0CF0004C08BF49024CEA4B
:1003DC00502040EA51207F3AC2BFD2F1FF0340EADD
:1003EC00C250704740F400004FF00003013A5DDC4E
:1003FC0012F1190FDCBF00F000407047C2F100028F
:10040C00410021FA02F1C2F1200200FA02FC5FEA7B
:10041C00310040F1000053EA4C0308BF20EADC70C5
:10042C00704792F0000F00F0004C02BF400010F437
:10043C00000F013AF9D040EA0C0093F0000F01F0E4
:10044C00004C02BF490011F4000F013BF9D041EA06
:10045C000C018FE70CEAD15392EA0C0F18BF93EA08
:10046C000C0F0AD030F0004C18BF31F0004CD8D132
:10047C0080EA010000F00040704790F0000F17BFB9
:10048C0090F0004F084691F0000F91F0004F14D0FF
:10049C0092EA0C0F01D142020FD193EA0C0F03D157
:1004AC004B0218BF084608D180EA010000F000405A
:1004BC0040F0FE4040F40000704740F0FE4040F435
:1004CC00400070474FF0FF0C1CEAD0521EBF1CEAD4
:1004DC00D15392EA0C0F93EA0C0F69D0A2EB0302F2
:1004EC0080EA010C49024FEA402037D04FF080538C
:1004FC0043EA111143EA10130CF000408B4238BF51
:10050C005B0042F17D024FF4000C8B4224BF5B1A5E
:10051C0040EA0C00B3EB510F24BFA3EB510340EAAC
:10052C005C00B3EB910F24BFA3EB910340EA9C005A
:10053C00B3EBD10F24BFA3EBD10340EADC001B01CA
:10054C0018BF5FEA1C1CE0D1FD2A3FF650AF8B426E
:10055C0040EBC25008BF20F0010070470CF0004C7B
:10056C004CEA50207F32C2BFD2F1FF0340EAC250A6
:10057C00704740F400004FF00003013A37E792F067
:10058C00000F00F0004C02BF400010F4000F013AC5
:10059C00F9D040EA0C0093F0000F01F0004C02BFC0
:1005AC00490011F4000F013BF9D041EA0C0195E729
:1005BC000CEAD15392EA0C0F08D142027FF47DAFC2
:1005CC0093EA0C0F7FF470AF084676E793EA0C0FB2
:1005DC0004D14B023FF44CAF08466EE730F0004CB0
:1005EC0018BF31F0004CCAD130F000427FF45CAF40
:1005FC0031F000437FF43CAF5FE700BF80B582B0C1
:10060C0002AF00F039FE00F03DF900F0AFF900F058
:10061C007FF900230093002300228849884800F0CA
:10062C0007FB052000F08AFE8649854800F0D2F9C8
:10063C00052000F083FE8149814800F0A3FC7F492E
:10064C007F4800F095FA7D4BB3F912301846FFF74E
:10065C0031FE02467C4B1B6819461046FFF77EFEA6
:10066C0003461A46794B1B6819461046FFF76CFD7A
:10067C0003461A46764B1A60704BB3F91430184681
:10068C00FFF718FE0246704B1B6819461046FFF721
:10069C0065FE03461A466D4B5B6819461046FFF71C
:1006AC0053FD03461A466B4B1A60644BB3F9163074
:1006BC001846FFF7FFFD0246634B1B6819461046B0
:1006CC00FFF74CFE03461A46604B9B6819461046D2
:1006DC00FFF73AFD03461A465F4B1A60574BB3F9C6
:1006EC000C301846FFF7E6FD02465C4B1B681946BA
:1006FC001046FFF733FE03461A46594B1B68194642
:10070C001046FFF721FD03461A46564B1A604B4B19
:10071C00B3F90E301846FFF7CDFD02464F4B1B6860
:10072C0019461046FFF71AFE03461A464C4B5B68F7
:10073C0019461046FFF708FD03461A464A4B1A6045
:10074C003E4BB3F910301846FFF7B4FD0246434B4D
:10075C001B6819461046FFF701FE03461A46404B2C
:10076C009B6819461046FFF7EFFC03461A463F4BB1
:10077C001A60324BB3F918301846FFF79BFD02464E
:10078C003B4B1B6819461046FFF7E8FD03461A461B
:10079C002C4B1B6819461046FFF7E0FD03461A4622
:1007AC00344B1B6819461046FFF7CEFC03461A461D
:1007BC00314B1A60214BB3F91A301846FFF77AFD0A
:1007CC0002462B4B1B6819461046FFF7C7FD034624
:1007DC001A461C4B5B6819461046FFF7BFFD0346D3
:1007EC001A46244B5B6819461046FFF7ADFC0346CE
:1007FC001A46224B1A60114BB3F91C301846FFF7FE
:10080C0059FD02461A4B1B6819461046FFF7A6FD08
:10081C0003461A460B4B9B6819461046FFF79EFD84
:10082C0003461A46134B9B6819461046FFF78CFC7F
:10083C0003461A46124B1A60FDE600BFE00000208A
:10084C008C0000205C0000200000002074000020C0
:10085C00380000203C000020400000200400002054
:10086C008000002044000020480000204C000020A4
:10087C0008000020680000205000002054000020D8
:10088C005800002080B590B000AF07F11803282263
:10089C000021184602F05CFC3B1D00221A605A60D5
:1008AC009A60DA601A610123BB614FF48033FB61FB
:1008BC0000233B620123BB6202237B634FF4803332
:1008CC00BB634FF4E013FB6307F11803184602F007
:1008DC0013F80346002B01D000F076F80F237B6051
:1008EC000223BB600023FB604FF480633B61002359
:1008FC007B613B1D0221184602F07EFA0346002B59
:10090C0001D000F061F800BF4037BD4680BD00004B
:10091C0080B500AF124B134A1A60114B124A5A6041
:10092C000F4B00229A600E4B0022DA600C4B4FF4F6
:10093C0080421A610A4B00225A61094B00229A61CB
:10094C00074B0022DA61064B00221A62044800F0C1
:10095C0055FF0346002B01D000F036F800BF80BDD8
:10096C008C00002000540040A086010080B485B0AB
:10097C0000AF144B9B69134A43F020039361114B56
:10098C009B6903F02003FB60FB680E4B9B690D4ACF
:10099C0043F0040393610B4B9B6903F00403BB60AE
:1009AC00BB68084B9B69074A43F008039361054BEE
:1009BC009B6903F008037B607B6800BF1437BD465E
:1009CC0080BC70470010024080B400AF00BFBD4631
:1009DC0080BC704790B589B002AF786039607B6895
:1009EC007B6118237B820A233B7401237B7400BF39
:1009FC0007F11002798A4FF47A7300930223786915
:100A0C0001F024F80346002BF2D1012000F096FCF3
:100A1C000A233B7400237B7400BF07F11002798A10
:100A2C004FF47A7300930223786901F00FF80346B0
:100A3C00002BF2D10B2000F081FC0F237B7400BF44
:100A4C0007F110024FF47A7300930223182178698E
:100A5C0000F0FCFF0346002BF2D1012000F06EFCED
:100A6C0000BF07F10C024FF47A7300930323182193
:100A7C00786901F0E9F80346002BF2D13B7B803B0F
:100A8C001846FFF717FC03464FF087411846FFF74F
:100A9C0019FD03464FF07E511846FFF757FB0346EE
:100AAC001A463B681A607B7B803B1846FFF702FCBA
:100ABC0003464FF087411846FFF704FD03461A46DC
:100ACC003B681C1D4FF07E511046FFF73FFB034661
:100ADC002360BB7B803B1846FFF7ECFB03464FF0D3
:100AEC0087411846FFF7EEFC03461A463B6803F1B4
:100AFC0008044FF07E511046FFF728FB0346236095
:100B0C0000237B7400BF07F110024FF47A7300933B
:100B1C0002231821786900F099FF0346002BF2D1CB
:100B2C00012000F00BFC104B1B781B015AB20F4B31
:100B3C001B785BB213435BB2DBB27B7400BF07F173
:100B4C0010024FF47A73009302231821786900F095
:100B5C007DFF0346002BF2D1012000F0EFFB0023B8
:100B6C0018461C37BD4690BD0C0000200D0000201F
:100B7C0080B58AB002AF786039600323FB737B6861
:100B8C00FB611823FB7600BFFB7E99B207F10F02C5
:100B9C004FF47A7300930123F86900F057FF034672
:100BAC00002BF1D100BFFB7E99B207F110024FF47C
:100BBC007A7300930623F86901F046F80346002B7C
:100BCC00F1D17B7C1B021AB23B7C1BB213431AB2D1
:100BDC003B681A83FB7C1B021AB2BB7C1BB213430F
:100BEC001AB23B685A837B7D1B021AB23B7D1BB247
:100BFC0013431AB23B689A8318233B830A233B7333
:100C0C0001237B7300BF07F10C02398B4FF47A730D
:100C1C0000930223F86900F019FF0346002BF2D170
:100C2C00002000F08BFB002318462037BD4680BD0A
:100C3C0080B58AB002AFF860B96011461A460B460F
:100C4C00FB711346BB717523BB76FB68FB61FB79AB
:100C5C0063F02F03DAB2BB681A70BB681B78FB76A3
:100C6C00FB7E99B205230222F86901F01BFA0346B8
:100C7C00002B01D0012378E06A233B7500237B75A0
:100C8C0002E0002000F05AFBFB7E99B207F114023F
:100C9C004FF47A7300930223F86900F0D7FE0346F1
:100CAC00002BEED137233B7502237B7502E000202D
:100CBC0000F044FBFB7E99B207F114024FF47A73F7
:100CCC0000930223F86900F0C1FE0346002BEED11D
:100CDC00FB7E99B207F11A024FF47A730093012349
:100CEC00F86900F0B3FE0346002B01D001233CE071
:100CFC00FB7E99B207F119024FF47A73009301232A
:100D0C00F86900F0A1FF0346002B03D001232CE06F
:100D1C0003232AE000BF7B7E682BF9D16B233B7544
:100D2C0000237B75FB7E99B207F114024FF47A73A2
:100D3C0000930223F86900F089FE0346002B01D0D2
:100D4C00012312E00722B968F86800F012F8BB79A9
:100D5C001A46B968F86800F031F897F828301A4646
:100D6C00B968F86800F09AF8002318462037BD4699
:100D7C0080BD80B588B002AFF860B9601346FB71D6
:100D8C00FB687B61BB681B78FB7419233B74FB7994
:100D9C007B7400BFFB7C99B207F110024FF47A739D
:100DAC0000930223786900F051FE0346002BF1D129
:100DBC00002318461837BD4680BD000080B588B0AA
:100DCC0002AFF860B9601346FB71FB687B61BB68CE
:100DDC001B78FB741C237B7400BFFB7C99B207F15E
:100DEC0011024FF47A7300930123786900F02EFE00
:100DFC000346002BF1D100BFFB7C99B207F1120224
:100E0C004FF47A7300930123786900F01DFF0346B9
:100E1C00002BF1D1BB7C5BB223F018035AB2FB79E7
:100E2C00DB005BB213435BB2DBB2BB7400BFFB7C79
:100E3C0099B207F112024FF47A7300930123786987
:100E4C0000F004FE0346002BF1D1FB79032B1FD8D5
:100E5C0001A252F823F000BF750E00087F0E0008A7
:100E6C00890E0008930E0008BB684FF062529A601E
:100E7C000FE0BB684FF064529A600AE0BB684FF019
:100E8C0066529A6005E0BB684FF068529A6000E0C9
:100E9C0000BF002318461837BD4680BD80B588B00A
:100EAC0002AFF860B9601346FB71FB687B61BB68ED
:100EBC001B78FB741B237B7400BFFB7C99B207F17E
:100ECC0011024FF47A7300930123786900F0BEFD90
:100EDC000346002BF1D100BFFB7C99B207F1120243
:100EEC004FF47A7300930123786900F0ADFE03464A
:100EFC00002BF1D1BB7C5BB223F018035AB2FB7907
:100F0C00DB005BB213435BB2DBB2BB7400BFFB7C98
:100F1C0099B207F112024FF47A73009301237869A6
:100F2C0000F094FD0346002BF1D1FB79032B1BD869
:100F3C0001A252F823F000BF550F00085D0F000806
:100F4C00650F00086D0F0008BB680A4A5A600CE078
:100F5C00BB68094A5A6008E0BB68084A5A6004E05A
:100F6C00BB68074A5A6000E000BF002318461837D8
:100F7C00BD4680BD2D23FA3B2D237A3C90C1F93C14
:100F8C0090C1793D80B58CB002AF786039603B235D
:100F9C00FB737B687B623B681B7887F8233000BF50
:100FAC0097F8233099B207F10F024FF47A7300933C
:100FBC000123786A00F04AFD0346002BF0D100BFF4
:100FCC0097F8233099B207F110024FF47A7300931B
:100FDC000E23786A00F038FE0346002BF0D13B7CE0
:100FEC001B021AB27B7C1BB213431AB23B689A8168
:100FFC00BB7C1B021AB2FB7C1BB213431AB23B68BC
:10100C00DA813B7D1B021AB27B7D1BB213431AB2F1
:10101C003B681A82BB7D1B021AB2FB7D1BB21343C9
:10102C003B84B7F920301846FFF744F903461649BC
:10103C001846FFF747FA034614491846FFF786F897
:10104C0003461A463B681A623B7E1B021AB27B7E31
:10105C001BB213431AB23B685A82BB7E1B021AB2F4
:10106C00FB7E1BB213431AB23B689A823B7F1B0276
:10107C001AB27B7F1BB213431AB23B68DA8200238D
:10108C0018462837BD4680BD0000AA43B81E124240
:10109C0080B485B000AF154B9B69144A43F0010333
:1010AC009361124B9B6903F00103BB60BB680F4B50
:1010BC00DB690E4A43F08053D3610C4BDB6903F0C0
:1010CC0080537B607B680A4B5B68FB60FB6823F09A
:1010DC00E063FB60FB6843F00073FB60044AFB6851
:1010EC00536000BF1437BD4680BC704700100240EF
:1010FC000000014080B588B000AF786007F11003A4
:10110C0000221A605A609A60DA607B681B68154A84
:10111C00934223D1144B9B69134A43F00803936108
:10112C00114B9B6903F00803FB60FB68C0233B6118
:10113C0012237B610323FB6107F1100319460B4853
:10114C0000F002FA084BDB69074A43F40013D36141
:10115C00054BDB6903F40013BB60BB6800BF203791
:10116C00BD4680BD0054004000100240000C014000
:10117C0080B400AF00BFBD4680BC704780B400AFE8
:10118C00FEE780B400AFFEE780B400AFFEE780B4AA
:10119C0000AFFEE780B400AF00BFBD4680BC704717
:1011AC0080B400AF00BFBD4680BC704780B400AFB8
:1011BC0000BFBD4680BC704780B500AF00F0A2F800
:1011CC0000BF80BD80B400AF154B1B68144A43F0C0
:1011DC0001031360124B5A681149124B13404B60B8
:1011EC000F4B1B680E4A23F0847323F48033136077
:1011FC000B4B1B680A4A23F480231360084B5B6873
:10120C00074A23F4FE035360054B4FF41F029A6008
:10121C00054B4FF000629A6000BFBD4680BC704722
:10122C00001002400000FFF800ED00E0002103E098
:10123C000B4B5B58435004310A480B4B42189A42F3
:10124C00F6D30A4A02E0002342F8043B084B9A42C8
:10125C00F9D3FFF7B7FF01F057FFFFF7CFF970474E
:10126C00B8310008000000201C0000201C000020E9
:10127C0008010020FEE7000080B500AF084B1B689A
:10128C00074A43F010031360032000F029F90020F3
:10129C0000F008F8FFF7FCFE0023184680BD00BFE5
:1012AC000020024080B582B000AF7860124B1A6803
:1012BC00124B1B7819464FF47A73B3FBF1F3B2FB64
:1012CC00F3F3184600F033F90346002B01D0012349
:1012DC000EE07B680F2B0AD8002279684FF0FF30A4
:1012EC0000F009F9064A7B681360002300E0012333
:1012FC0018460837BD4680BD10000020180000209D
:10130C001400002080B400AF054B1B781A46054B27
:10131C001B681344034A136000BFBD4680BC704772
:10132C00180000200401002080B400AF024B1B68A1
:10133C001846BD4680BC70470401002080B584B0BF
:10134C0000AF7860FFF7F0FFB8607B68FB60FB686C
:10135C00B3F1FF3F05D0094B1B781A46FB681344C9
:10136C00FB6000BFFFF7E0FF0246BB68D31AFA68C8
:10137C009A42F7D800BF1037BD4680BD1800002038
:10138C0080B485B000AF78607B6803F00703FB6026
:10139C000C4BDB68BB60BA684FF6FF031340BB60B5
:1013AC00FB681A02BB68134343F0BF6343F400337A
:1013BC00BB60044ABB68D36000BF1437BD4680BC19
:1013CC00704700BF00ED00E080B400AF044BDB6859
:1013DC001B0A03F007031846BD4680BC704700BFCC
:1013EC0000ED00E080B483B000AF03463960FB71C0
:1013FC0097F90730002B0ADB3B68DAB20C4997F9F6
:10140C0007301201D2B20B4483F800230AE03B6888
:10141C00DAB20849FB7903F00F03043B1201D2B294
:10142C000B441A7600BF0C37BD4680BC704700BF1A
:10143C0000E100E000ED00E080B489B000AFF8609E
:10144C00B9607A60FB6803F00703FB61FB69C3F1C9
:10145C000703042B28BF0423BB61FB690433062B51
:10146C0002D9FB69033B00E000237B614FF0FF32A4
:10147C00BB6902FA03F3DA43BB681A407B699A40F2
:10148C004FF0FF317B6901FA03F3D9437B680B40C2
:10149C00134318462437BD4680BC704780B582B0D4
:1014AC0000AF78607B68013BB3F1807F01D30123EF
:1014BC000FE00A4A7B68013B53600F214FF0FF306D
:1014CC00FFF790FF054B00229A60044B07221A602D
:1014DC00002318460837BD4680BD00BF10E000E071
:1014EC0080B582B000AF78607868FFF749FF00BF25
:1014FC000837BD4680BD80B586B000AF0346B960E5
:10150C007A60FB7300237B61FFF75EFF78617A687A
:10151C00B9687869FFF790FF024697F90F301146CA
:10152C001846FFF75FFF00BF1837BD4680BD80B57A
:10153C0082B000AF78607868FFF7B0FF03461846BA
:10154C000837BD4680BD000080B48BB000AF78601A
:10155C00396000237B6200233B6227E101227B6A16
:10156C0002FA03F3FB613B681B68FA691340BB6129
:10157C00BA69FB699A4240F016813B685B68122B92
:10158C0034D0122B0DD8022B2BD0022B04D8002BCD
:10159C0031D0012B1CD048E0032B43D0112B1BD096
:1015AC0043E0894A934226D0874A934206D8874A19
:1015BC00934220D0864A93421DD036E0854A93420E
:1015CC0019D0854A934216D0844A934213D02CE00A
:1015DC003B68DB683B6228E03B68DB6804333B62BA
:1015EC0023E03B68DB6808333B621EE03B68DB684A
:1015FC000C333B6219E03B689B68002B02D104233F
:10160C003B6212E03B689B68012B05D108233B62CF
:10161C007B68FA691A6108E008233B627B68FA6907
:10162C005A6102E000233B6200BFBB69FF2B01D86B
:10163C007B6801E07B6804337B61BB69FF2B02D8BC
:10164C007B6A9B0002E07B6A083B9B003B617B69E9
:10165C001A680F213B6901FA03F3DB431A40396A1C
:10166C003B6901FA03F31A437B691A603B685B68B8
:10167C0003F08053002B00F09680594B9B69584A1D
:10168C0043F001039361564B9B6903F00103BB606C
:10169C00BB68544A7B6A9B08023352F82330FB60C8
:1016AC007B6A03F003039B000F2202FA03F3DB4374
:1016BC00FA681340FB607B684B4A934213D07B68FB
:1016CC004A4A93420DD07B68494A934207D07B68C3
:1016DC00484A934201D1032306E0042304E0022389
:1016EC0002E0012300E000237A6A02F00302920078
:1016FC009340FA681343FB603A497B6A9B080233B8
:10170C00FA6841F823203B685B6803F48033002BB4
:10171C0006D0394B1A683849BB6913430B6006E095
:10172C00354B1A68BB69DB43334913400B603B688C
:10173C005B6803F40033002B06D02F4B5A682E49FC
:10174C00BB6913434B6006E02B4B5A68BB69DB4308
:10175C00294913404B603B685B6803F48013002BF2
:10176C0006D0254B9A682449BB6913438B6006E06D
:10177C00214B9A68BB69DB431F4913408B603B6864
:10178C005B6803F40013002B06D01B4BDA681A4974
:10179C00BB691343CB6006E0174BDA68BB69DB43CC
:1017AC0015491340CB607B6A01337B623B681A6836
:1017BC007B6A22FA03F3002B7FF4D0AE00BF2C37E8
:1017CC00BD4680BC704700BF000021100000111006
:1017DC000000121000003110000032100000221026
:1017EC00001002400000014000080140000C0140C4
:1017FC0000100140001401400004014080B584B089
:10180C0000AF78607B68002B01D101230FE17B686E
:10181C0093F83D30DBB2002B06D17B68002283F8B5
:10182C003C207868FFF766FC7B68242283F83D2017
:10183C007B681B681A687B681B6822F001021A60BF
:10184C0001F030FCF8607B685B687B4A934207D8F8
:10185C00FB687A4A934294BF01230023DBB206E073
:10186C00FB68774A934294BF01230023DBB2002B21
:10187C0001D00123DBE0FB68724AA2FB03239B0C23
:10188C00BB607B681B685B6823F03F017B681B684F
:10189C00BA680A435A607B681B681B6A23F03F01D5
:1018AC007B685B68644A934202D8BB68013309E0E9
:1018BC00BB684FF4967202FB03F3634AA2FB03234B
:1018CC009B0901337A6812680B4313627B681B68AF
:1018DC00DB6923F44F4222F0FF027B685B685649B8
:1018EC008B420DD8FB68591E7B685B685B00B1FBB3
:1018FC00F3F30133C3F30B03042B38BF04234FE082
:10190C007B689B68002B11D1FB68581E7B6859685B
:10191C000B465B000B44B0FBF3F30133C3F30B0337
:10192C00002B0CBF01230023DBB212E0FB68581E16
:10193C007B6859680B469B000B4499000B44B0FB29
:10194C00F3F30133C3F30B03002B0CBF0123002370
:10195C00DBB2002B01D0012322E07B689B68002BBB
:10196C000ED1FB68581E7B6859680B465B000B4414
:10197C00B0FBF3F30133C3F30B0343F400430FE069
:10198C00FB68581E7B6859680B469B000B449900FA
:10199C000B44B0FBF3F30133C3F30B0343F44043A9
:1019AC00796809681343CB617B681B681B6823F05B
:1019BC00C0017B68DA697B681B6A1A437B681B6809
:1019CC000A431A607B681B689B6823F4034323F06B
:1019DC00FF037A6811697A68D26811437A681268D1
:1019EC000B4393607B681B68DB6823F0FF017B680B
:1019FC005A697B689B691A437B681B680A43DA60E7
:101A0C007B681B681A687B681B6842F001021A60CD
:101A1C007B6800221A647B68202283F83D207B6857
:101A2C0000221A637B68002283F83E2000231846AC
:101A3C001037BD4680BD00BFA08601007F841E000C
:101A4C00FF083D0083DE1B43D34D621080B588B088
:101A5C0002AFF8607A601A460B467B8113463B81D5
:101A6C00FFF762FC7861FB6893F83D30DBB2202B0A
:101A7C0040F0E0807B690093192301227049F868DB
:101A8C0000F05EFD0346002B01D00223D3E0FB687F
:101A9C0093F83C30012B01D10223CCE0FB680122EE
:101AAC0083F83C20FB681B681B6803F00103012BC7
:101ABC0007D0FB681B681A68FB681B6842F00102C0
:101ACC001A60FB681B681A68FB681B6822F40062CA
:101ADC001A60FB68212283F83D20FB68102283F8F2
:101AEC003E20FB6800221A64FB687A685A62FB6825
:101AFC003A895A85FB685B8D9AB2FB681A85FB683C
:101B0C00504ADA6279897B693A6AF86800F0ECFB32
:101B1C000346002B01D001238DE000233B61FB68C1
:101B2C001B685B693B61FB681B689B693B613B699C
:101B3C0066E07A69396AF86800F0D8FD0346002B34
:101B4C000DD0FB681B6C042B07D1FB681B681A6853
:101B5C00FB681B6842F400721A6001236BE0FB689F
:101B6C005B6A1A78FB681B681A61FB685B6A5A1C13
:101B7C00FB685A62FB685B8D9BB2013B9AB2FB68B7
:101B8C005A85FB681B8D013B9AB2FB681A85FB6872
:101B9C001B685B6903F00403042B1BD1FB681B8DD2
:101BAC00002B17D0FB685B6A1A78FB681B681A61FC
:101BBC00FB685B6A5A1CFB685A62FB685B8D9BB2C4
:101BCC00013B9AB2FB685A85FB681B8D013B9AB2AC
:101BDC00FB681A857A69396AF86800F0C8FD034613
:101BEC00002B0DD0FB681B6C042B07D1FB681B680A
:101BFC001A68FB681B6842F400721A6001231AE031
:101C0C00FB681B8D002B94D1FB681B681A68FB6862
:101C1C001B6842F400721A60FB68202283F83D2096
:101C2C00FB68002283F83E20FB68002283F83C20EE
:101C3C00002300E0022318461837BD4680BD00BFC4
:101C4C00020010000000FFFF80B58CB002AFF860FE
:101C5C007A601A460B467B8113463B81FFF764FB87
:101C6C007862FB6893F83D30DBB2202B40F0138296
:101C7C007B6A0093192301227E49F86800F060FC0E
:101C8C000346002B01D0022306E2FB6893F83C309C
:101C9C00012B01D10223FFE1FB68012283F83C20D8
:101CAC00FB681B681B6803F00103012B07D0FB6862
:101CBC001B681A68FB681B6842F001021A60FB681B
:101CCC001B681A68FB681B6822F400621A60FB68C8
:101CDC00222283F83D20FB68102283F83E20FB680B
:101CEC0000221A64FB687A685A62FB683A895A8542
:101CFC00FB685B8D9AB2FB681A85FB685E4ADA62F8
:101D0C0079897B6A3A6BF86800F064FB0346002B18
:101D1C0001D00123C0E1FB681B8D002B13D10023E4
:101D2C003B62FB681B685B693B62FB681B689B69D9
:101D3C003B623B6AFB681B681A68FB681B6842F4D1
:101D4C0000721A6094E1FB681B8D012B1DD1FB689E
:101D5C001B681A68FB681B6822F480621A6072B6F2
:101D6C000023FB61FB681B685B69FB61FB681B68FC
:101D7C009B69FB61FB69FB681B681A68FB681B6845
:101D8C0042F400721A6062B672E1FB681B8D022B82
:101D9C001DD1FB681B681A68FB681B6842F4006263
:101DAC001A6072B60023BB61FB681B685B69BB6180
:101DBC00FB681B689B69BB61BB69FB681B681A6885
:101DCC00FB681B6822F480621A6062B650E1FB6803
:101DDC001B681A68FB681B6842F480621A60002357
:101DEC007B61FB681B685B697B61FB681B689B699B
:101DFC007B617B693CE1FB681B8D032B00F2F5805A
:101E0C00FB681B8D012B23D17A6A396BF86800F0C3
:101E1C00EFFC0346002B01D001233DE1FB681B685E
:101E2C001A69FB685B6AD2B21A70FB685B6A5A1C4F
:101E3C00FB685A62FB681B8D013B9AB2FB681A85E2
:101E4C00FB685B8D9BB2013B9AB2FB685A850FE134
:101E5C00FB681B8D022B50D17B6A00933B6B0022DD
:101E6C000649F86800F06CFB0346002B08D00123F0
:101E7C0012E100BF020010000000FFFF040001008F
:101E8C0072B6FB681B681A68FB681B6842F4007228
:101E9C001A60FB681B681A69FB685B6AD2B21A701D
:101EAC00FB685B6A5A1CFB685A62FB681B8D013B22
:101EBC009AB2FB681A85FB685B8D9BB2013B9AB2A8
:101ECC00FB685A8562B6FB681B681A69FB685B6A1B
:101EDC00D2B21A70FB685B6A5A1CFB685A62FB68C8
:101EEC001B8D013B9AB2FB681A85FB685B8D9BB21C
:101EFC00013B9AB2FB685A85BAE07B6A00933B6B54
:101F0C0000226749F86800F01BFB0346002B01D048
:101F1C000123C1E0FB681B681A68FB681B6822F48C
:101F2C0080621A6072B6FB681B681A69FB685B6A90
:101F3C00D2B21A70FB685B6A5A1CFB685A62FB6867
:101F4C001B8D013B9AB2FB681A85FB685B8D9BB2BB
:101F5C00013B9AB2FB685A857B6A00933B6B00226B
:101F6C004F49F86800F0ECFA0346002B01D001232E
:101F7C0092E0FB681B681A68FB681B6842F40072ED
:101F8C001A60FB681B681A69FB685B6AD2B21A702C
:101F9C00FB685B6A5A1CFB685A62FB681B8D013B31
:101FAC009AB2FB681A85FB685B8D9BB2013B9AB2B7
:101FBC00FB685A8562B6FB681B681A69FB685B6A2A
:101FCC00D2B21A70FB685B6A5A1CFB685A62FB68D7
:101FDC001B8D013B9AB2FB681A85FB685B8D9BB22B
:101FEC00013B9AB2FB685A8542E07A6A396BF86811
:101FFC0000F0FEFB0346002B01D001234CE0FB68F4
:10200C001B681A69FB685B6AD2B21A70FB685B6A60
:10201C005A1CFB685A62FB681B8D013B9AB2FB6829
:10202C001A85FB685B8D9BB2013B9AB2FB685A85A3
:10203C00FB681B685B6903F00403042B18D1FB6875
:10204C001B681A69FB685B6AD2B21A70FB685B6A20
:10205C005A1CFB685A62FB681B8D013B9AB2FB68E9
:10206C001A85FB685B8D9BB2013B9AB2FB685A8563
:10207C00FB681B8D002B7FF4BEAEFB68202283F81F
:10208C003D20FB68002283F83E20FB68002283F889
:10209C003C20002300E0022318462837BD4680BDB3
:1020AC000400010080B58AB002AFF8607A603B6032
:1020BC000B467B81FFF738F9F8610123BB61FB68A4
:1020CC0093F83D30DBB2202B40F00581FB69009387
:1020DC00192301228249F86800F032FA0346002BDA
:1020EC0001D00223F8E0FB6893F83C30012B01D1BE
:1020FC000223F1E0FB68012283F83C20FB681B689B
:10210C001B6803F00103012B07D0FB681B681A68DE
:10211C00FB681B6842F001021A60FB681B681A68B6
:10212C00FB681B6822F400621A60FB68242283F8A7
:10213C003D20FB6800221A64FB686A4ADA62FB687D
:10214C001B681A68FB681B6842F480721A60FB6992
:10215C0000933B6800224FF00111F86800F0F0F991
:10216C000346002B01D00123B6E07B89DBB21A4673
:10217C00FB681B6802F0FE021A61FFF7D5F8F861E4
:10218C00FB681B685B6903F00203022B0CBF012385
:10219C000023DBB2FB75FB681B685B6903F480638F
:1021AC00B3F5806F0CBF01230023DBB2BB7525E0B8
:1021BC00FFF7BAF80246FB69D31A3A689A4202D37F
:1021CC003B68002B03D1FB68A02283F83D20FB6801
:1021DC001B685B6903F00203022B0CBF0123002375
:1021EC00DBB2FB75FB681B685B6903F48063B3F5BA
:1021FC00806F0CBF01230023DBB2BB75FB6893F827
:10220C003D30DBB2A02B05D0FB7D002B02D1BB7D7A
:10221C00002BCDD0FB68202283F83D20FB681B6887
:10222C005B6903F00203022B29D1FB681B681A6857
:10223C00FB681B6842F400721A6000233B61FB6868
:10224C001B685B693B61FB681B689B693B613B6975
:10225C00FB690093192301222149F86800F070F9F9
:10226C000346002B01D0012336E0FB68202283F8C3
:10227C003D20FB68002283F83C2000232CE0FB6807
:10228C001B681A68FB681B6842F400721A60FB68D2
:10229C001B686FF480625A61FB6900931923012259
:1022AC000F49F86800F04CF90346002B01D00123CC
:1022BC0012E0BB690133BB61BA697B689A42FFF4D7
:1022CC003EAFFB68202283F83D20FB68002283F898
:1022DC003C20012300E0022318462037BD4680BD78
:1022EC00020010000000FFFF80B588B002AFF8605C
:1022FC007A603B600B467B81FB68DB6A7B617B69A8
:10230C00082B06D07B69012B03D07B6913F5803F2A
:10231C0008D1FB681B681A68FB681B6842F4807262
:10232C001A600BE0FB681B6B122B07D1FB681B6858
:10233C001A68FB681B6842F480721A603B68009351
:10234C007B6800224FF00111F86800F0F9F80346A1
:10235C00002B01D0012335E0FB681B69B3F5804FDE
:10236C0008D17B89DBB21A46FB681B6802F0FE02BF
:10237C001A611BE07B89DB11DBB203F00603DBB2D5
:10238C0063F00F03DAB2FB681B681A613B687A686A
:10239C000E49F86800F02BF90346002B01D00123FD
:1023AC0010E07B89DAB2FB681B681A613B687A68BB
:1023BC000749F86800F01BF90346002B01D00123F4
:1023CC0000E0002318461837BD4680BD0800010008
:1023DC000200010080B588B002AFF8607A603B6003
:1023EC000B467B81FB68DB6A7B61FB681B681A68A8
:1023FC00FB681B6842F480621A607B69082B06D06C
:10240C007B69012B03D07B6913F5803F08D1FB68F6
:10241C001B681A68FB681B6842F480721A600BE038
:10242C00FB681B6B112B07D1FB681B681A68FB68D8
:10243C001B6842F480721A603B6800937B68002230
:10244C004FF00111F86800F07BF80346002B01D027
:10245C0001236DE0FB681B69B3F5804F08D17B89C4
:10246C00DBB243F00103DAB2FB681B681A6153E07C
:10247C007B89DB11DBB203F00603DBB263F00F03E5
:10248C00DAB2FB681B681A613B687A682A49F868FB
:10249C0000F0ADF80346002B01D0012348E07B8906
:1024AC00DAB2FB681B681A613B687A682349F868E2
:1024BC0000F09DF80346002B01D0012338E00023E7
:1024CC003B61FB681B685B693B61FB681B689B6934
:1024DC003B613B69FB681B681A68FB681B6842F42C
:1024EC0080721A603B6800937B6800224FF00111E8
:1024FC00F86800F025F80346002B01D0012317E003
:10250C007B89DB11DBB203F00603DBB263F00E0355
:10251C00DAB2FB681B681A613B687A680749F8688D
:10252C0000F065F80346002B01D0012300E00023E6
:10253C0018461837BD4680BD080001000200010096
:10254C0080B584B000AFF860B9603B601346FB7196
:10255C0025E03B68B3F1FF3F21D0FEF7E5FE0246D4
:10256C00BB69D31A3A689A4202D33B68002B16D146
:10257C00FB6800221A63FB68202283F83D20FB686D
:10258C00002283F83E20FB681B6C43F02002FB68A2
:10259C001A64FB68002283F83C20012323E0BB680B
:1025AC001B0CDBB2012B0DD1FB681B685B69DA439A
:1025BC00BB6813409BB2002B0CBF01230023DBB282
:1025CC001A460CE0FB681B689B69DA43BB68134036
:1025DC009BB2002B0CBF01230023DBB21A46FB7904
:1025EC009A42B6D0002318461037BD4680BD80B540
:1025FC0084B000AFF860B9607A603B6051E0FB6872
:10260C001B685B6903F48063B3F5806F23D1FB68AF
:10261C001B681A68FB681B6842F400721A60FB683E
:10262C001B686FF480625A61FB6800221A63FB68B6
:10263C00202283F83D20FB68002283F83E20FB68B3
:10264C001B6C43F00402FB681A64FB68002283F8DD
:10265C003C20012346E07B68B3F1FF3F21D0FEF71D
:10266C0063FE02463B68D31A7A689A4202D37B68AF
:10267C00002B16D1FB6800221A63FB68202283F81A
:10268C003D20FB68002283F83E20FB681B6C43F066
:10269C002002FB681A64FB68002283F83C200123AB
:1026AC0020E0BB681B0CDBB2012B0CD1FB681B6858
:1026BC005B69DA43BB6813409BB2002B14BF012348
:1026CC000023DBB20BE0FB681B689B69DA43BB6839
:1026DC0013409BB2002B14BF01230023DBB2002B51
:1026EC008DD1002318461037BD4680BD80B584B00F
:1026FC0000AFF860B9607A602DE0F86800F0CEF8B1
:10270C000346002B01D001232DE0BB68B3F1FF3F42
:10271C0021D0FEF709FE02467B68D31ABA689A42AA
:10272C0002D3BB68002B16D1FB6800221A63FB682E
:10273C00202283F83D20FB68002283F83E20FB68B2
:10274C001B6C43F02002FB681A64FB68002283F8C0
:10275C003C20012307E0FB681B685B6903F08003E6
:10276C00802BCAD1002318461037BD4680BD80B5DA
:10277C0084B000AFF860B9607A602DE0F86800F0C2
:10278C008DF80346002B01D001232DE0BB68B3F17B
:10279C00FF3F21D0FEF7C8FD02467B68D31ABA680A
:1027AC009A4202D3BB68002B16D1FB6800221A6335
:1027BC00FB68202283F83D20FB68002283F83E2032
:1027CC00FB681B6C43F02002FB681A64FB68002258
:1027DC0083F83C20012307E0FB681B685B6903F06E
:1027EC000403042BCAD1002318461037BD4680BD04
:1027FC0080B584B000AFF860B9607A6042E0FB68E5
:10280C001B685B6903F01003102B19D1FB681B6864
:10281C006FF010025A61FB6800221A63FB682022D9
:10282C0083F83D20FB68002283F83E20FB681A6C7D
:10283C00FB681A64FB68002283F83C20012329E022
:10284C00FEF772FD02467B68D31ABA689A4202D32D
:10285C00BB68002B16D1FB6800221A63FB68202290
:10286C0083F83D20FB68002283F83E20FB681B6C3C
:10287C0043F02002FB681A64FB68002283F83C20BA
:10288C00012307E0FB681B685B6903F04003402BE6
:10289C00B5D1002318461037BD4680BD80B483B037
:1028AC0000AF78607B681B685B6903F48063B3F5E9
:1028BC00806F1BD17B681B686FF480625A617B68E8
:1028CC0000221A637B68202283F83D207B6800225B
:1028DC0083F83E207B681B6C43F004027B681A640F
:1028EC007B68002283F83C20012300E0002318467B
:1028FC000C37BD4680BC704780B586B000AF7860A1
:10290C007B68002B01D101236CE27B681B6803F010
:10291C000103002B00F08780924B5B6803F00C03E3
:10292C00042B0CD08F4B5B6803F00C03082B12D1DB
:10293C008C4B5B6803F48033B3F5803F0BD1894B30
:10294C001B6803F40033002B6CD07B685B68002B96
:10295C0068D1012346E27B685B68B3F5803F06D102
:10296C00804B1B687F4A43F4803313602EE07B68F6
:10297C005B68002B0CD17B4B1B687A4A23F48033A9
:10298C001360784B1B68774A23F4802313601DE097
:10299C007B685B68B3F5A02F0CD1724B1B68714A36
:1029AC0043F4802313606F4B1B686E4A43F48033EF
:1029BC0013600BE06B4B1B686A4A23F48033136083
:1029CC00684B1B68674A23F4802313607B685B6841
:1029DC00002B13D0FEF7A8FC386108E0FEF7A4FC2E
:1029EC0002463B69D31A642B01D90323FAE15D4BF0
:1029FC001B6803F40033002BF0D014E0FEF794FCBA
:102A0C00386108E0FEF790FC02463B69D31A642B50
:102A1C0001D90323E6E1534B1B6803F40033002B6D
:102A2C00F0D100E000BF7B681B6803F00203002BB1
:102A3C0063D04C4B5B6803F00C03002B0BD0494B61
:102A4C005B6803F00C03082B1CD1464B5B6803F44A
:102A5C008033002B16D1434B1B6803F00203002B71
:102A6C0005D07B681B69012B01D00123BAE13D4BDA
:102A7C001B6823F0F8027B685B69DB003949134360
:102A8C000B603AE07B681B69002B20D0364B01228F
:102A9C001A60FEF749FC386108E0FEF745FC024677
:102AAC003B69D31A022B01D903239BE12D4B1B68E5
:102ABC0003F00203002BF0D02A4B1B6823F0F80222
:102ACC007B685B69DB00274913430B6015E0264BE1
:102ADC0000221A60FEF728FC386108E0FEF724FC9F
:102AEC0002463B69D31A022B01D903237AE11D4B11
:102AFC001B6803F00203002BF0D17B681B6803F00A
:102B0C000803002B3AD07B689B69002B19D0174B1C
:102B1C0001221A60FEF708FC386108E0FEF704FC9D
:102B2C0002463B69D31A022B01D903235AE10D4B00
:102B3C005B6A03F00203002BF0D0012000F0C6FA10
:102B4C001CE00A4B00221A60FEF7EEFB38610FE026
:102B5C00FEF7EAFB02463B69D31A022B08D9032382
:102B6C0040E100BF0010024000004242800442429B
:102B7C009E4B5B6A03F00203002BE9D17B681B6858
:102B8C0003F00403002B00F0A6800023FB75974B89
:102B9C00DB6903F08053002B0DD1944BDB69934A16
:102BAC0043F08053D361914BDB6903F08053BB60DE
:102BBC00BB680123FB758E4B1B6803F48073002BE1
:102BCC0018D18B4B1B688A4A43F480731360FEF751
:102BDC00ABFB386108E0FEF7A7FB02463B69D31A52
:102BEC00642B01D90323FDE0814B1B6803F4807334
:102BFC00002BF0D07B68DB68012B06D17B4B1B6A6A
:102C0C007A4A43F0010313622DE07B68DB68002BEA
:102C1C000CD1764B1B6A754A23F001031362734B7C
:102C2C001B6A724A23F0040313621CE07B68DB68A6
:102C3C00052B0CD16D4B1B6A6C4A43F004031362D9
:102C4C006A4B1B6A694A43F0010313620BE0674B42
:102C5C001B6A664A23F001031362644B1B6A634AC6
:102C6C0023F0040313627B68DB68002B15D0FEF79E
:102C7C005BFB38610AE0FEF757FB02463B69D31A4F
:102C8C0041F28832934201D90323ABE0574B1B6AC4
:102C9C0003F00203002BEED014E0FEF745FB386185
:102CAC000AE0FEF741FB02463B69D31A41F2883237
:102CBC00934201D9032395E04C4B1B6A03F00203AA
:102CCC00002BEED1FB7D012B05D1484BDB69474A2C
:102CDC0023F08053D3617B68DB69002B00F081808B
:102CEC00424B5B6803F00C03082B61D07B68DB69FB
:102CFC00022B46D13F4B00221A60FEF715FB3861C0
:102D0C0008E0FEF711FB02463B69D31A022B01D9EE
:102D1C00032367E0354B1B6803F00073002BF0D1E5
:102D2C007B681B6AB3F5803F08D1304B5B6823F49A
:102D3C0000327B689B682D4913434B602B4B5B68BF
:102D4C0023F474127B68196A7B685B6A0B4327490E
:102D5C0013434B60274B01221A60FEF7E5FA3861EA
:102D6C0008E0FEF7E1FA02463B69D31A022B01D9BF
:102D7C00032337E01D4B1B6803F00073002BF0D0CE
:102D8C002FE01C4B00221A60FEF7CEFA386108E0E7
:102D9C00FEF7CAFA02463B69D31A022B01D9032368
:102DAC0020E0124B1B6803F00073002BF0D118E0ED
:102DBC007B68DB69012B01D1012313E00B4B5B68B2
:102DCC00FB60FB6803F480327B681B6A9A4206D175
:102DDC00FB6803F470127B685B6A9A4201D0012392
:102DEC0000E0002318461837BD4680BD0010024095
:102DFC00007000406000424280B584B000AF786043
:102E0C0039607B68002B01D10123D0E06A4B1B6831
:102E1C0003F007033A689A4210D9674B1B6823F0FA
:102E2C00070265493B6813430B60634B1B6803F057
:102E3C0007033A689A4201D00123B8E07B681B680B
:102E4C0003F00203002B20D07B681B6803F0040303
:102E5C00002B05D0594B5B68584A43F4E063536030
:102E6C007B681B6803F00803002B05D0534B5B6891
:102E7C00524A43F460535360504B5B6823F0F002AA
:102E8C007B689B684D4913434B607B681B6803F060
:102E9C000103002B40D07B685B68012B07D1474BAB
:102EAC001B6803F40033002B15D101237FE07B68F2
:102EBC005B68022B07D1414B1B6803F00073002B9E
:102ECC0009D1012373E03D4B1B6803F00203002B77
:102EDC0001D101236BE0394B5B6823F003027B6863
:102EEC005B68364913434B60FEF71EFAF8600AE044
:102EFC00FEF71AFA0246FB68D31A41F28832934263
:102F0C0001D9032353E02D4B5B6803F00C027B6863
:102F1C005B689B009A42EBD1274B1B6803F00703BD
:102F2C003A689A4210D2244B1B6823F007022249BC
:102F3C003B6813430B60204B1B6803F007033A6894
:102F4C009A4201D0012332E07B681B6803F0040332
:102F5C00002B08D0194B5B6823F4E0627B68DB68BC
:102F6C00164913434B607B681B6803F00803002B66
:102F7C0009D0124B5B6823F460527B681B69DB0041
:102F8C000E4913434B6000F021F801460B4B5B6874
:102F9C001B0903F00F030A4AD35C21FA03F3094A15
:102FAC001360094B1B681846FEF77CF90023184682
:102FBC001037BD4680BD00BF00200240001002400B
:102FCC0098310008100000201400002090B48AB042
:102FDC0000AF2A4B3C1D0FCB84E80F00284B1B88FD
:102FEC003B800023FB610023BB6100237B62002339
:102FFC007B6100233B62234B5B68FB61FB6903F045
:10300C000C03042B02D0082B03D02DE01E4B3B628B
:10301C002DE0FB699B0C03F00F0307F1280213440E
:10302C0013F8243C7B61FB6903F48033002B13D031
:10303C00144B5B685B0C03F0010307F1280213448B
:10304C0013F8283CBB617B690F4A02FB03F2BB6996
:10305C00B2FBF3F37B6204E07B690C4A02FB03F3E3
:10306C007B627B6A3B6202E0074B3B6200BF3B6AC0
:10307C0018462837BD4690BC704700BF8431000805
:10308C00943100080010024000127A0000093D0043
:10309C0080B400AF024B1B681846BD4680BC70471D
:1030AC001000002080B500AFFFF7F2FF0146054B82
:1030BC005B681B0A03F00703034AD35C21FA03F392
:1030CC00184680BD00100240A831000880B485B0BD
:1030DC0000AF78600A4B1B680A4AA2FB03235B0A09
:1030EC007A6802FB03F3FB6000BFFB685A1EFA60B0
:1030FC00002BF9D100BF1437BD4680BC704700BF10
:10310C0010000020D34D621070B500250C4E0D4CF4
:10311C00A41BA410A54209D100F022F800250A4EE8
:10312C000A4CA41BA410A54205D170BD56F825303D
:10313C0098470135EEE756F8253098470135F2E708
:10314C00B0310008B0310008B0310008B4310008CB
:10315C0003460244934200D1704703F8011BF9E780
:10316C00F8B500BFF8BC08BC9E467047F8B500BF68
:08317C00F8BC08BC9E46704738
:1031840002030405060708090A0B0C0D0E0F1010A4
:10319400010200000000000000000000010203041E
:0C31A400060708090000000001020304F7
:0431B00031010008E1
:0431B4000D01000801
:1031B8000000FA3B00008038FFEBBF40010600002A
:0C31C8000024F4001000000001000000D2
:0400000508001239A4
:00000001FF
