:020000040800F2
:1000000000500020711400085D13000869130008F7
:100010006F130008751300087B1300080000000030
:100020000000000000000000000000008113000834
:100030008D1300080000000099130008A5130008A4
:10004000B9140008B9140008B9140008B91400085C
:10005000B9140008B9140008B9140008B91400084C
:10006000B9140008B9140008B9140008B91400083C
:10007000B9140008B9140008B9140008B91400082C
:10008000B9140008B9140008B9140008B91400081C
:10009000B9140008B9140008B9140008B91400080C
:1000A000B9140008B9140008B9140008B9140008FC
:1000B000B9140008B9140008B9140008B9140008EC
:1000C000B9140008B9140008B9140008B9140008DC
:1000D000B9140008B9140008B9140008B9140008CC
:1000E000B9140008B9140008B91400080000000091
:1000F0000000000000000000000000000000000000
:0C01000000000000000000005FF808F1A3
:10010C0010B5054C237833B9044B13B10448AFF345
:10011C0000800123237010BD780000200000000037
:10012C000435000808B5034B1BB103490348AFF372
:10013C00008008BD000000007C0000200435000891
:10014C0080B485B000AF78607B68FB600A4B1B689D
:10015C000A4AA2FB03239A0CFB6802FB03F3FB6025
:10016C0000BFFB685A1EFA60002BFAD100BF14378F
:10017C00BD4680BC704700BF08000020819F5E1602
:10018C0080B582B000AF78607B68002B08D00A4B3A
:10019C0018680A4B1B880122194601F04BFC07E03A
:1001AC00054B1868054B1B880022194601F042FCD0
:1001BC0000BF0837BD4680BDA4000020A800002069
:1001CC0080B582B000AF78607B68002B08D00A4BFA
:1001DC0018680A4B1B880122194601F02BFC07E01A
:1001EC00054B1868054B1B880022194601F022FCB0
:1001FC0000BF0837BD4680BDA4000020AA00002027
:10020C0080B584B000AF0346FB710020FFF7B8FF48
:10021C00FB7903F01F03DBB23B7307F10C01642382
:10022C0001220A4802F069F807F10C03591C6423F7
:10023C000122064802F095F97B7BFB730120FFF746
:10024C009FFFFB7B18461037BD4680BDAC000020DD
:10025C0080B584B000AF03463960FB711346BB71A7
:10026C000020FFF78DFFFB7903F01F03DBB23B731C
:10027C0007F10C0164230122084802F03EF8BB7917
:10028C009AB264233968054802F06BF90120FFF734
:10029C0077FF00BF1037BD4680BD00BFAC0000200B
:1002AC0080B584B000AF03460A46FB711346BB71A0
:1002BC000020FFF765FFFB7943F02003DBB23B73B3
:1002CC00BB797B7307F10C0164230222044802F012
:1002DC0014F80120FFF754FF00BF1037BD4680BD56
:1002EC00AC00002080B584B000AF03463960FB71D0
:1002FC001346BB710020FFF743FFFB7943F020034B
:10030C00DBB23B7307F10C0164230122084801F0B6
:10031C00F4FFBB799AB264233968054801F0EDFF0C
:10032C000120FFF72DFF00BF1037BD4680BD00BF79
:10033C00AC00002080B584B000AF78600B46FB7039
:10034C0000F006FA03461A46FB78934203D300F0FA
:10035C00FFF9034600E0FB78FB730020FFF710FF6A
:10036C006123BB7307F10E0164230122084801F0DD
:10037C00C4FFFB7B9AB264237968054802F0F1F85C
:10038C000120FFF7FDFE00BF1037BD4680BD00BF4A
:10039C00AC00002080B500AFFF21E120FFF780FF0B
:1003AC0000BF80BD80B500AFFF21E220FFF778FFD2
:1003BC0000BF80BD80B582B000AF0720FFF720FFE3
:1003CC000346FB71FB7918460837BD4680BD00001B
:1003DC0082B080B584B000AF7860FB610B467B8047
:1003EC0013463B80664B184607F11C0358221946EE
:1003FC0002F066FC634A7B681360634A7B88138057
:10040C00624A3B8813800120FFF7BAFE0020FFF7F9
:10041C00D7FE052001F0AEF808210020FFF740FFC1
:10042C003F210120FFF73CFF03210220FFF738FF9B
:10043C0003210320FFF734FF03210420FFF730FFD3
:10044C0002210520FFF72CFF0F210620FFF728FFC4
:10045C000E210720FFF724FF00210820FFF720FFC3
:10046C0000210920FFF71CFFE7233B73E723FB72F6
:10047C00E723BB72E7237B72E7233B7207F1080388
:10048C00052219460A20FFF72DFFC2233B73C22316
:10049C00FB72C223BB72C2237B72C2233B7207F175
:1004AC000803052219460B20FFF71CFFC3210C2063
:1004BC00FFF7F6FEC4210D20FFF7F2FEC5210E203A
:1004CC00FFF7EEFEC6210F20FFF7EAFEE7233B7392
:1004DC00E723FB72E723BB72E7237B72E7233B72B4
:1004EC0007F10803052219461020FFF7FBFE002137
:1004FC001120FFF7D5FE00211220FFF7D1FE0021BD
:10050C001320FFF7CDFE00211420FFF7C9FE0021B8
:10051C001520FFF7C5FE00211620FFF7C1FE00F0E5
:10052C0045FA00211C20FFF7BBFE00211D20FFF720
:10053C00B7FE00F055FA0F210F2000F0C3F803208E
:10054C0000F045F9012000F07BF9022000F0BEF923
:10055C0000F010F9202000F0E5F800F01EFA4C2015
:10056C0000F0CBF8FFF716FFFFF71CFF00F0D6F9F1
:10057C0000BF1037BD46BDE8804002B0704700BFD9
:10058C00AC000020A4000020A8000020AA0000203D
:10059C0098B500AF0020FFF733FE034643F003038A
:1005AC00DBB219460020FFF77BFE0A4B18CB234326
:1005BC0004D0052207490A20FFF794FEFFF7EAFE54
:1005CC00FFF7F0FE0120FFF7FBFD9620FFF7B8FDCB
:1005DC0000BF98BD9800002080B500AF002000F04F
:1005EC00ACF90346184680BD80B584B000AF786086
:1005FC000B46FB70FB7819467868FFF79BFE1720BB
:10060C00FFF7FEFD034603F00103FB73FFF7CAFE81
:10061C0000F0A8F8FB7B002B14BF01230023DBB2F6
:10062C0018461037BD4680BD90B585B000AF014669
:10063C00C7E900230B46FB73FB7B002B04D1D7E9E6
:10064C0000341C4AC2E90034FB7B062B2DD8FB7B03
:10065C00012B08D8FB7B184AD35C39460522184677
:10066C00FFF740FE07E0FB7B134AD35C39460122BF
:10067C001846FFF737FEFB7B104AD25C104B1B78F9
:10068C0019461046FFF70CFE0220FFF7B9FD034692
:10069C005AB2FB7B012101FA03F35BB213435BB249
:1006AC00DBB219460220FFF7FBFD00BF1437BD4635
:1006BC0090BD00BF98000020743A00087C3A0008F6
:1006CC00A000002080B582B000AF03460A46FB7143
:1006DC001346BB71FB791B015AB297F9063003F034
:1006EC000F035BB213435BB2DBB219460420FFF776
:1006FC00D7FD00BF0837BD4680BD80B584B000AFC4
:10070C000346FB717F23FB73FA7BFB79934228BF73
:10071C001346DBB219460520FFF7C2FD00BF1037A8
:10072C00BD4680BD80B485B000AF0346FB7120236D
:10073C00FB73FA7BFB79934228BF1346DAB2034B67
:10074C001A7000BF1437BD4680BC7047A000002053
:10075C0080B400AF024B1B781846BD4680BC704776
:10076C00A000002080B500AF6020FFF749FD0346D4
:10077C00184680BD80B500AF1D20FFF741FD034634
:10078C0023F00403DBB219461D20FFF789FD00217D
:10079C001C20FFF785FD024B00221A7000BF80BDA4
:1007AC00A100002080B582B000AF0346FB71FB793D
:1007BC00002B04D03F210120FFF772FD03E0002144
:1007CC000120FFF76DFD00BF0837BD4680BD80B529
:1007DC0084B000AF0346FB710620FFF711FD034602
:1007EC00FB73FB7B23F00603FB73FB79032B04D118
:1007FC00FB7B43F00603FB7319E0FB79022B04D15E
:10080C00FB7B43F00403FB7311E0FB79012B04D158
:10081C00FB7B43F00203FB7309E0FB79002B06D052
:10082C00FB79042B03D1FB7B43F00603FB73FB7BAF
:10083C0019460620FFF734FD00BF1037BD4680BDBA
:10084C0080B584B000AF0346FB710023FB73062018
:10085C00FFF7D6FC0346BB731B4B00221A70BB7B05
:10086C0023F02803BB73FB79022B07D1164B002214
:10087C001A70BB7B43F02003BB730DE0FB79012B9B
:10088C0007D1114B01221A70BB7B43F00803BB73D9
:10089C0002E00D4B00221A70BB7B19460620FFF7B5
:1008AC00FFFC0620FFF7ACFC03461A46BB7B9342C9
:1008BC0002D10123FB7302E0034B00221A70FB7B75
:1008CC0018461037BD4680BDA200002080B584B00C
:1008DC0000AF0346FB710020FFF792FC034623F0A8
:1008EC000C03FB73FB79002B0FD0FB79012B04D18C
:1008FC00FB7B43F00803FB7307E0FB7B43F008032F
:10090C00FB73FB7B43F00403FB73FB7B194600205A
:10091C00FFF7C6FC00BF1037BD4680BD80B500AFE9
:10092C000020FFF76DFC034623F00203DBB21946EF
:10093C000020FFF7B5FC00BF80BD80B584B000AFD0
:10094C007860FFF737FD0346FB73FB7B03F0400336
:10095C00002B14BF01230023BB73BB7B002B17D0D0
:10096C007B68002B07D0FB7B5B08DBB203F0070333
:10097C00DAB27B681A7040210720FFF791FCFB7BF1
:10098C0003F02003002B03D020210720FFF788FC65
:10099C00BB7B18461037BD4680BD80B500AF7021BB
:1009AC000720FFF77DFC00BF80BD000080B582B042
:1009BC0000AF0020FFF7E4FB50233B7173237B71E6
:1009CC00391D64230222054801F097FC0120FFF732
:1009DC00D7FB00BF0837BD4680BD00BFAC00002070
:1009EC00F0B5A1B004AF0020FFF70AFC034687F86E
:1009FC006F3097F86F3003F00803002B20D097F876
:100A0C006F3003F00403002B0BD007F10803A14A4D
:100A1C001C4615460FCD0FC495E8070084E8070067
:100A2C0017E007F108039C4A1C4615460FCD0FC46E
:100A3C0095E8070003C422800234130C237008E0ED
:100A4C0007F10803954A1C4615460FCD0FC42B68B9
:100A5C0023600120FFF7D4FB034687F86F3097F82B
:100A6C006F3003F00103002BCCBF01230023DBB25A
:100A7C001D4697F86F3003F00203002BCCBF012307
:100A8C000023DBB21E4697F86F3003F00403002BF3
:100A9C00CCBF01230023DBB21A4697F86F3003F06A
:100AAC000803002BCCBF01230023DBB2194697F8B7
:100ABC006F3003F01003002BCCBF01230023DBB2FB
:100ACC001C4697F86F3003F02003002BCCBF01239A
:100ADC000023DBB207F1080003930294019100920A
:100AEC0033462A466E4902F0FFF80220FFF788FBD6
:100AFC00034687F86F3097F86F3003F00103002B33
:100B0C00CCBF01230023DBB21D4697F86F3003F0F6
:100B1C000203002BCCBF01230023DBB21E4697F847
:100B2C006F3003F00403002BCCBF01230023DBB296
:100B3C001A4697F86F3003F00803002BCCBF012343
:100B4C000023DBB2194697F86F3003F01003002B2B
:100B5C00CCBF01230023DBB21C4697F86F3003F0A7
:100B6C002003002BCCBF01230023DBB207F10800CC
:100B7C00039302940191009233462A46494902F0AC
:100B8C00B3F80320FFF73CFB034603F0030387F89D
:100B9C006F3097F86F30023387F86F3097F86F200B
:100BAC0007F108034049184602F09EF80520FFF7AC
:100BBC0027FB034687F86F3097F86F3003F07F02FE
:100BCC0007F108033949184602F08EF80620FFF7A2
:100BDC0017FB034687F86F3097F86F3003F0080364
:100BEC00002B0FD007F10803314A1C4615460FCDD8
:100BFC000FC495E8030020600434218002340B0CF0
:100C0C0023700EE007F108032A4A1C4615460FCD47
:100C1C000FC495E8030020600434218002340B0CCF
:100C2C00237097F86F3003F0060387F86F3097F84E
:100C3C006F305B0887F86F3097F86F30002B09D155
:100C4C0007F108031C4A1C4615460FCD0FC42B6830
:100C5C00236044E097F86F30012B09D107F10803AA
:100C6C00164A1C4615460FCD0FC42B68236036E080
:100C7C0097F86F30022B25D107F10803104A1C4658
:100C8C0015460FCD0FC42B681A46228002341B0C5C
:100C9C00237024E01C350008383500085435000852
:100CAC0068350008AC350008F83500081436000823
:100CBC002836000840360008583600086C36000804
:100CCC008036000897F86F30032B08D107F1080322
:100CDC00C64A1C4615460FCD0FC42B6823803B46D5
:100CEC00052219460A20FFF7B3FA3B791C46FB781C
:100CFC001D46BB787A78397807F108000291019289
:100D0C0000932B462246BA4901F0EEFF3B460522E2
:100D1C0019460B20FFF79CFA3B791C46FB781D46C5
:100D2C00BB787A78397807F1080002910192009328
:100D3C002B462246AF4901F0D7FF3B46012219460C
:100D4C000C20FFF785FA3B781A4607F10803AA49ED
:100D5C00184601F0C9FF3B46012219460D20FFF74A
:100D6C0077FA3B781A4607F10803A449184601F0B4
:100D7C00BBFF3B46012219460E20FFF769FA3B7870
:100D8C001A4607F108039E49184601F0ADFF3B4691
:100D9C00012219460F20FFF75BFA3B781A4607F140
:100DAC0008039849184601F09FFF3B460522194657
:100DBC001020FFF74DFA3B791C46FB781D46BB789B
:100DCC007A78397807F108000291019200932B464A
:100DDC0022468D4901F088FF1120FFF711FA0346D6
:100DEC0087F86F3097F86F3003F03F0207F1080374
:100DFC008649184601F078FF1220FFF701FA0346E6
:100E0C0087F86F3097F86F3003F03F0207F1080353
:100E1C007F49184601F068FF1320FFF7F1F90346EC
:100E2C0087F86F3097F86F3003F03F0207F1080333
:100E3C007849184601F058FF1420FFF7E1F90346F2
:100E4C0087F86F3097F86F3003F03F0207F1080313
:100E5C007149184601F048FF1520FFF7D1F90346F8
:100E6C0087F86F3097F86F3003F03F0207F10803F3
:100E7C006A49184601F038FF1620FFF7C1F90346FE
:100E8C0087F86F3097F86F3003F03F0207F10803D3
:100E9C006349184601F028FF1C20FFF7B1F90346FF
:100EAC0087F86F3097F86F3003F00103002BCCBF3D
:100EBC0001230023DBB21D4697F86F3003F00203C9
:100ECC00002BCCBF01230023DBB21E4697F86F30FA
:100EDC0003F00403002BCCBF01230023DBB21A4622
:100EEC0097F86F3003F00803002BCCBF01230023CD
:100EFC00DBB2194697F86F3003F01003002BCCBF10
:100F0C0001230023DBB21C4697F86F3003F020035B
:100F1C00002BCCBF01230023DBB207F108000393A5
:100F2C0002940191009233462A463E4901F0DCFEC0
:100F3C001D20FFF765F9034687F86F3097F86F307F
:100F4C0003F00403002B0CD007F10803364A1C46AF
:100F5C0015460FCD0FC495E80300206004342180A2
:100F6C000EE007F10803314A1C4615460FCD0FC49D
:100F7C0095E8030020600434218002340B0C2370AC
:100F8C0097F86F3003F00203002B0BD007F1080326
:100F9C00274A1C4615460FCD0FC495E8070003C41D
:100FAC0022800DE007F10803224A1C4615460FCD9E
:100FBC000FC495E8070003C422800234130C23707D
:100FCC0007F108031C4A1C4615460FCD0FC40FCD64
:100FDC000FC40FCD0FC42B681A46228002341B0C91
:100FEC00237000BF7437BD46F0BD00BF94360008B7
:100FFC00A8360008D8360008083700083037000833
:10100C005837000880370008A8370008D437000884
:10101C00F03700080C38000828380008443800085D
:10102C00603800087C380008C8380008E038000830
:10103C00F8380008143900083039000890B597B01A
:10104C0016AF00F035FA00F039F800F0B3F800F004
:10105C007BF8164C6846231D5422194601F030FECD
:10106C0023684FF400724FF480711148FFF7B0F908
:10107C00FFF7B6FC0020FFF795FB3420FFF73DFB94
:10108C002020FFF74FFB0B4B18CB1A4623460120B1
:10109C00FFF7CAFAFFF77CFAFFF79EFA0346002B1C
:1010AC00FAD020210448FFF79FFAF5E73001002021
:1010BC00000C0140000000201001002080B590B011
:1010CC0000AF07F1180328220021184601F003FE97
:1010DC003B1D00221A605A609A60DA601A61012383
:1010EC00BB614FF48033FB6100233B620123BB6285
:1010FC0002237B634FF48033BB634FF4E013FB6339
:10110C0007F11803184600F0ADFC0346002B01D084
:10111C0000F09CF80F237B600223BB600023FB6074
:10112C004FF480633B6100237B613B1D0221184619
:10113C0000F018FF0346002B01D000F087F800BF29
:10114C004037BD4680BD000080B500AF174B184A34
:10115C001A60164B4FF482725A60144B00229A603C
:10116C00124B0022DA60114B00221A610F4B002245
:10117C005A610E4B4FF400729A610C4B2022DA61CB
:10118C000A4B00221A62094B00225A62074B0022BA
:10119C009A62064B0A22DA62044801F04DF80346C3
:1011AC00002B01D000F052F800BF80BD30010020B0
:1011BC000030014080B588B000AF07F11003002269
:1011CC001A605A609A60DA601E4B9B691D4A43F0A4
:1011DC00200393611B4B9B6903F02003FB60FB68AE
:1011EC00184B9B69174A43F004039361154B9B6999
:1011FC0003F00403BB60BB68124B9B69114A43F0BC
:10120C00080393610F4B9B6903F008037B607B68B9
:10121C0000224FF440710C4800F00CFC4FF440736A
:10122C003B6101237B610023BB610223FB6107F15E
:10123C0010031946044800F0A3FA00BF2037BD463E
:10124C0080BD00BF00100240000C014080B400AF14
:10125C0000BFBD4680BC704780B485B000AF154B55
:10126C009B69144A43F001039361124B9B6903F091
:10127C000103BB60BB680F4BDB690E4A43F0805324
:10128C00D3610C4BDB6903F080537B607B680A4BAA
:10129C005B68FB60FB6823F0E063FB60FB6843F07A
:1012AC000073FB60044AFB68536000BF1437BD46F3
:1012BC0080BC7047001002400000014080B588B02F
:1012CC0000AF786007F1100300221A605A609A6030
:1012DC00DA607B681B681B4A93422FD11A4B9B69BF
:1012EC00194A43F480539361174B9B6903F4805361
:1012FC00FB60FB68144B9B69134A43F00403936136
:10130C00114B9B6903F00403BB60BB68A0233B61DA
:10131C0002237B610323FB6107F1100319460B4881
:10132C0000F02EFA40233B6100237B610023BB615C
:10133C0007F110031946054800F022FA00BF2037C8
:10134C00BD4680BD00300140001002400008014045
:10135C0080B400AF00BFBD4680BC704780B400AF06
:10136C00FEE780B400AFFEE780B400AFFEE780B4C8
:10137C0000AFFEE780B400AF00BFBD4680BC704735
:10138C0080B400AF00BFBD4680BC704780B400AFD6
:10139C0000BFBD4680BC704780B500AF00F0CEF8F2
:1013AC0000BF80BD80B584B000AF7860114B1B6866
:1013BC00002B02D10F4B104A1A600E4B1B68FB60BE
:1013CC000C4B1A687B6813446A46934207D901F0A8
:1013DC004DFC02460C2313604FF0FF3306E0054B27
:1013EC001A687B681344034A1360FB68184610376D
:1013FC00BD4680BD040100209001002080B400AFE8
:10140C00154B1B68144A43F001031360124B5A68C6
:10141C001149124B13404B600F4B1B680E4A23F0C3
:10142C00847323F4803313600B4B1B680A4A23F438
:10143C0080231360084B5B68074A23F4FE03536058
:10144C00054B4FF41F029A60054B4FF000629A60F7
:10145C0000BFBD4680BC7047001002400000FFF882
:10146C0000ED00E0002103E00B4B5B5843500431CE
:10147C000A480B4B42189A42F6D30A4A02E0002360
:10148C0042F8043B084B9A42F9D3FFF7B7FF01F03F
:10149C00F3FBFFF7D3FD7047D03A000800000020A3
:1014AC00780000207800002090010020FEE700006A
:1014BC0080B500AF084B1B68074A43F0100313605C
:1014CC00032000F029F9002000F008F8FFF7C4FE13
:1014DC000023184680BD00BF0020024080B582B0BA
:1014EC0000AF7860124B1A68124B1B7819464FF4F8
:1014FC007A73B3FBF1F3B2FBF3F3184600F033F954
:10150C000346002B01D001230EE07B680F2B0AD879
:10151C00002279684FF0FF3000F009F9064A7B6829
:10152C001360002300E0012318460837BD4680BD38
:10153C0008000020100000200C00002080B400AF38
:10154C00054B1B781A46054B1B681344034A136062
:10155C0000BFBD4680BC70471000002088010020F1
:10156C0080B400AF024B1B681846BD4680BC704768
:10157C008801002080B584B000AF7860FFF7F0FFE1
:10158C00B8607B68FB60FB68B3F1FF3F05D0094B8B
:10159C001B781A46FB681344FB6000BFFFF7E0FFA3
:1015AC000246BB68D31AFA689A42F7D800BF1037C4
:1015BC00BD4680BD1000002080B485B000AF7860BF
:1015CC007B6803F00703FB600C4BDB68BB60BA68FD
:1015DC004FF6FF031340BB60FB681A02BB68134352
:1015EC0043F0BF6343F40033BB60044ABB68D36071
:1015FC0000BF1437BD4680BC704700BF00ED00E053
:10160C0080B400AF044BDB681B0A03F007031846D9
:10161C00BD4680BC704700BF00ED00E080B483B0D5
:10162C0000AF03463960FB7197F90730002B0ADBDA
:10163C003B68DAB20C4997F907301201D2B20B446D
:10164C0083F800230AE03B68DAB20849FB7903F01F
:10165C000F03043B1201D2B20B441A7600BF0C37B5
:10166C00BD4680BC704700BF00E100E000ED00E02B
:10167C0080B489B000AFF860B9607A60FB6803F0A1
:10168C000703FB61FB69C3F10703042B28BF042389
:10169C00BB61FB690433062B02D9FB69033B00E0F9
:1016AC0000237B614FF0FF32BB6902FA03F3DA438C
:1016BC00BB681A407B699A404FF0FF317B6901FA95
:1016CC0003F3D9437B680B40134318462437BD46BC
:1016DC0080BC704780B582B000AF78607B68013BFE
:1016EC00B3F1807F01D301230FE00A4A7B68013BF1
:1016FC0053600F214FF0FF30FFF790FF054B002296
:10170C009A60044B07221A60002318460837BD461E
:10171C0080BD00BF10E000E080B582B000AF786003
:10172C007868FFF749FF00BF0837BD4680BD80B51C
:10173C0086B000AF0346B9607A60FB7300237B610F
:10174C00FFF75EFF78617A68B9687869FFF790FFF8
:10175C00024697F90F3011461846FFF75FFF00BF9E
:10176C001837BD4680BD80B582B000AF7860786810
:10177C00FFF7B0FF034618460837BD4680BD000092
:10178C0080B48BB000AF7860396000237B6200239B
:10179C003B6227E101227B6A02FA03F3FB613B689F
:1017AC001B68FA691340BB61BA69FB699A4240F045
:1017BC0016813B685B68122B34D0122B0DD8022B90
:1017CC002BD0022B04D8002B31D0012B1CD048E09D
:1017DC00032B43D0112B1BD043E0894A934226D0D4
:1017EC00874A934206D8874A934220D0864A93422E
:1017FC001DD036E0854A934219D0854A934216D0C3
:10180C00844A934213D02CE03B68DB683B6228E0AF
:10181C003B68DB6804333B6223E03B68DB680833DE
:10182C003B621EE03B68DB680C333B6219E03B68B3
:10183C009B68002B02D104233B6212E03B689B683F
:10184C00012B05D108233B627B68FA691A6108E019
:10185C0008233B627B68FA695A6102E000233B6211
:10186C0000BFBB69FF2B01D87B6801E07B680433A8
:10187C007B61BB69FF2B02D87B6A9B0002E07B6A11
:10188C00083B9B003B617B691A680F213B6901FA9D
:10189C0003F3DB431A40396A3B6901FA03F31A4339
:1018AC007B691A603B685B6803F08053002B00F087
:1018BC009680594B9B69584A43F001039361564BF0
:1018CC009B6903F00103BB60BB68544A7B6A9B08AD
:1018DC00023352F82330FB607B6A03F003039B0056
:1018EC000F2202FA03F3DB43FA681340FB607B68B8
:1018FC004B4A934213D07B684A4A93420DD07B6883
:10190C00494A934207D07B68484A934201D103234A
:10191C0006E0042304E0022302E0012300E000239C
:10192C007A6A02F0030292009340FA681343FB6058
:10193C003A497B6A9B080233FA6841F823203B68DA
:10194C005B6803F48033002B06D0394B1A68384996
:10195C00BB6913430B6006E0354B1A68BB69DB436C
:10196C00334913400B603B685B6803F40033002B76
:10197C0006D02F4B5A682E49BB6913434B6006E0C7
:10198C002B4B5A68BB69DB43294913404B603B68BE
:10199C005B6803F48013002B06D0254B9A6824490E
:1019AC00BB6913438B6006E0214B9A68BB69DB4330
:1019BC001F4913408B603B685B6803F40013002BDA
:1019CC0006D01B4BDA681A49BB691343CB6006E09F
:1019DC00174BDA68BB69DB4315491340CB607B6A54
:1019EC0001337B623B681A687B6A22FA03F3002B93
:1019FC007FF4D0AE00BF2C37BD4680BC704700BF13
:101A0C000000211000001110000012100000311015
:101A1C0000003210000022100010024000000140B3
:101A2C0000080140000C014000100140001401406E
:101A3C000004014080B483B000AF78600B467B801B
:101A4C0013467B707B78002B03D07A887B681A61F5
:101A5C0003E07B881A047B681A6100BF0C37BD4613
:101A6C0080BC704780B586B000AF78607B68002B77
:101A7C0001D101236CE27B681B6803F00103002B8E
:101A8C0000F08780924B5B6803F00C03042B0CD0A6
:101A9C008F4B5B6803F00C03082B12D18C4B5B68EB
:101AAC0003F48033B3F5803F0BD1894B1B6803F4EF
:101ABC000033002B6CD07B685B68002B68D1012352
:101ACC0046E27B685B68B3F5803F06D1804B1B68B0
:101ADC007F4A43F4803313602EE07B685B68002BF5
:101AEC000CD17B4B1B687A4A23F480331360784B00
:101AFC001B68774A23F4802313601DE07B685B68C6
:101B0C00B3F5A02F0CD1724B1B68714A43F48023A0
:101B1C0013606F4B1B686E4A43F4803313600BE009
:101B2C006B4B1B686A4A23F480331360684B1B6849
:101B3C00674A23F4802313607B685B68002B13D007
:101B4C00FFF70EFD386108E0FFF70AFD02463B691E
:101B5C00D31A642B01D90323FAE15D4B1B6803F400
:101B6C000033002BF0D014E0FFF7FAFC386108E0EA
:101B7C00FFF7F6FC02463B69D31A642B01D9032309
:101B8C00E6E1534B1B6803F40033002BF0D100E06B
:101B9C0000BF7B681B6803F00203002B63D04C4B27
:101BAC005B6803F00C03002B0BD0494B5B6803F014
:101BBC000C03082B1CD1464B5B6803F48033002BC1
:101BCC0016D1434B1B6803F00203002B05D07B6836
:101BDC001B69012B01D00123BAE13D4B1B6823F09B
:101BEC00F8027B685B69DB00394913430B603AE010
:101BFC007B681B69002B20D0364B01221A60FFF743
:101C0C00AFFC386108E0FFF7ABFC02463B69D31A26
:101C1C00022B01D903239BE12D4B1B6803F002031C
:101C2C00002BF0D02A4B1B6823F0F8027B685B6911
:101C3C00DB00274913430B6015E0264B00221A608A
:101C4C00FFF78EFC386108E0FFF78AFC02463B691F
:101C5C00D31A022B01D903237AE11D4B1B6803F025
:101C6C000203002BF0D17B681B6803F00803002BE8
:101C7C003AD07B689B69002B19D0174B01221A6054
:101C8C00FFF76EFC386108E0FFF76AFC02463B691F
:101C9C00D31A022B01D903235AE10D4B5B6A03F0D3
:101CAC000203002BF0D0012000F0A8FA1CE00A4B34
:101CBC0000221A60FFF754FC38610FE0FFF750FC6C
:101CCC0002463B69D31A022B08D9032340E100BF1B
:101CDC000010024000004242800442429E4B5B6A6C
:101CEC0003F00203002BE9D17B681B6803F00403AB
:101CFC00002B00F0A6800023FB75974BDB6903F0EB
:101D0C008053002B0DD1944BDB69934A43F08053E5
:101D1C00D361914BDB6903F08053BB60BB6801233B
:101D2C00FB758E4B1B6803F48073002B18D18B4B07
:101D3C001B688A4A43F480731360FFF711FC386107
:101D4C0008E0FFF70DFC02463B69D31A642B01D95E
:101D5C000323FDE0814B1B6803F48073002BF0D050
:101D6C007B68DB68012B06D17B4B1B6A7A4A43F0FC
:101D7C00010313622DE07B68DB68002B0CD1764BE2
:101D8C001B6A754A23F001031362734B1B6A724A78
:101D9C0023F0040313621CE07B68DB68052B0CD179
:101DAC006D4B1B6A6C4A43F0040313626A4B1B6A4B
:101DBC00694A43F0010313620BE0674B1B6A664AE6
:101DCC0023F001031362644B1B6A634A23F0040380
:101DDC0013627B68DB68002B15D0FFF7C1FB386101
:101DEC000AE0FFF7BDFB02463B69D31A41F2883289
:101DFC00934201D90323ABE0574B1B6A03F0020358
:101E0C00002BEED014E0FFF7ABFB38610AE0FFF7D4
:101E1C00A7FB02463B69D31A41F28832934201D99F
:101E2C00032395E04C4B1B6A03F00203002BEED10D
:101E3C00FB7D012B05D1484BDB69474A23F08053CE
:101E4C00D3617B68DB69002B00F08180424B5B68BF
:101E5C0003F00C03082B61D07B68DB69022B46D1A5
:101E6C003F4B00221A60FFF77BFB386108E0FFF75D
:101E7C0077FB02463B69D31A022B01D9032367E097
:101E8C00354B1B6803F00073002BF0D17B681B6A89
:101E9C00B3F5803F08D1304B5B6823F400327B688C
:101EAC009B682D4913434B602B4B5B6823F47412D6
:101EBC007B68196A7B685B6A0B43274913434B6049
:101ECC00274B01221A60FFF74BFB386108E0FFF744
:101EDC0047FB02463B69D31A022B01D9032337E097
:101EEC001D4B1B6803F00073002BF0D02FE01C4B34
:101EFC0000221A60FFF734FB386108E0FFF730FB73
:101F0C0002463B69D31A022B01D9032320E0124B62
:101F1C001B6803F00073002BF0D118E07B68DB69C1
:101F2C00012B01D1012313E00B4B5B68FB60FB68B9
:101F3C0003F480327B681B6A9A4206D1FB6803F477
:101F4C0070127B685B6A9A4201D0012300E0002387
:101F5C0018461837BD4680BD001002400070004086
:101F6C006000424280B584B000AF786039607B6815
:101F7C00002B01D10123D0E06A4B1B6803F007034F
:101F8C003A689A4210D9674B1B6823F007026549DF
:101F9C003B6813430B60634B1B6803F007033A6801
:101FAC009A4201D00123B8E07B681B6803F002035E
:101FBC00002B20D07B681B6803F00403002B05D09A
:101FCC00594B5B68584A43F4E06353607B681B6869
:101FDC0003F00803002B05D0534B5B68524A43F4C3
:101FEC0060535360504B5B6823F0F0027B689B6836
:101FFC004D4913434B607B681B6803F00103002BB6
:10200C0040D07B685B68012B07D1474B1B6803F4FE
:10201C000033002B15D101237FE07B685B68022B1A
:10202C0007D1414B1B6803F00073002B09D101232E
:10203C0073E03D4B1B6803F00203002B01D101231D
:10204C006BE0394B5B6823F003027B685B683649B5
:10205C0013434B60FFF784FAF8600AE0FFF780FA4D
:10206C000246FB68D31A41F28832934201D903230A
:10207C0053E02D4B5B6803F00C027B685B689B00A4
:10208C009A42EBD1274B1B6803F007033A689A423C
:10209C0010D2244B1B6823F0070222493B681343E0
:1020AC000B60204B1B6803F007033A689A4201D07F
:1020BC00012332E07B681B6803F00403002B08D07B
:1020CC00194B5B6823F4E0627B68DB6816491343A9
:1020DC004B607B681B6803F00803002B09D0124B84
:1020EC005B6823F460527B681B69DB000E49134369
:1020FC004B6000F021F801460B4B5B681B0903F0A9
:10210C000F030A4AD35C21FA03F3094A1360094B03
:10211C001B681846FFF7E2F9002318461037BD4636
:10212C0080BD00BF0020024000100240843A00082D
:10213C00080000200C00002090B48AB000AF2A4B9D
:10214C003C1D0FCB84E80F00284B1B883B800023E1
:10215C00FB610023BB6100237B6200237B610023B6
:10216C003B62234B5B68FB61FB6903F00C03042BA4
:10217C0002D0082B03D02DE01E4B3B622DE0FB69F7
:10218C009B0C03F00F0307F12802134413F8243CB3
:10219C007B61FB6903F48033002B13D0144B5B6819
:1021AC005B0C03F0010307F12802134413F8283CDD
:1021BC00BB617B690F4A02FB03F2BB69B2FBF3F311
:1021CC007B6204E07B690C4A02FB03F37B627B6A53
:1021DC003B6202E0074B3B6200BF3B6A1846283764
:1021EC00BD4690BC704700BF603A0008703A0008CA
:1021FC000010024000127A0000093D0080B485B046
:10220C0000AF78600A4B1B680A4AA2FB03235B0AE7
:10221C007A6802FB03F3FB6000BFFB685A1EFA608E
:10222C00002BF9D100BF1437BD4680BC704700BFEE
:10223C0008000020D34D621080B582B000AF7860EA
:10224C007B68002B01D1012353E07B6800229A624A
:10225C007B6893F85130DBB2002B06D17B680022EF
:10226C0083F850207868FFF729F87B68022283F8FE
:10227C0051207B681B681A687B681B6822F040023F
:10228C001A607B685A687B689B681A437B68DB68BA
:10229C001A437B681B691A437B685B691A437B682A
:1022AC009B6903F400731A437B68DB691A437B68F0
:1022BC001B6A42EA03017B689A6A7B681B680A43C3
:1022CC001A607B689B691A0C7B681B6802F004021D
:1022DC005A607B681B68DA697B681B6822F40062B1
:1022EC00DA617B6800225A657B68012283F85120F1
:1022FC00002318460837BD4680BD80B588B000AFB6
:10230C00F860B9603B601346FB800023FB77FB68E9
:10231C0093F85030012B01D102231EE1FB680122FE
:10232C0083F85020FFF71CF9B861FB88FB82FB682F
:10233C0093F85130DBB2012B02D00223FB7703E17F
:10234C00BB68002B02D0FB88002B02D10123FB774A
:10235C00FAE0FB68032283F85120FB6800225A65DF
:10236C00FB68BA681A63FB68FA889A86FB68FA8875
:10237C00DA86FB6800229A63FB6800229A87FB6866
:10238C000022DA87FB6800225A64FB6800221A6478
:10239C00FB689B68B3F5004F07D1FB681B681A6894
:1023AC00FB681B6842F480421A60FB681B681B6860
:1023BC0003F04003402B07D0FB681B681A68FB68CE
:1023CC001B6842F040021A60FB68DB68B3F5006FD3
:1023DC004BD1FB685B68002B02D0FB8A012B3ED1F2
:1023EC00FB681B6B1A88FB681B68DA60FB681B6B4D
:1023FC009A1CFB681A63FB68DB8E9BB2013B9AB29A
:10240C00FB68DA862BE0FB681B689B6803F0020311
:10241C00022B12D1FB681B6B1A88FB681B68DA60F5
:10242C00FB681B6B9A1CFB681A63FB68DB8E9BB208
:10243C00013B9AB2FB68DA8611E0FFF791F802468D
:10244C00BB69D31A3A689A4203D83B68B3F1FF3F91
:10245C0002D13B68002B02D10323FB7774E0FB68AD
:10246C00DB8E9BB2002BCED14CE0FB685B68002B63
:10247C0002D0FB8A012B40D1FB681A6BFB681B68EE
:10248C000C3312781A70FB681B6B5A1CFB681A63AE
:10249C00FB68DB8E9BB2013B9AB2FB68DA862CE0C0
:1024AC00FB681B689B6803F00203022B13D1FB68CB
:1024BC001A6BFB681B680C3312781A70FB681B6B69
:1024CC005A1CFB681A63FB68DB8E9BB2013B9AB209
:1024DC00FB68DA8611E0FFF743F80246BB69D31AB2
:1024EC003A689A4203D83B68B3F1FF3F02D13B688C
:1024FC00002B02D10323FB7726E0FB68DB8E9BB21B
:10250C00002BCDD1BA693968F86800F091FB03460D
:10251C00002B02D0FB6820225A65FB689B68002BBD
:10252C000AD100233B61FB681B68DB683B61FB68DD
:10253C001B689B683B613B69FB685B6D002B02D0A1
:10254C000123FB7700E000BFFB68012283F85120D8
:10255C00FB68002283F85020FB7F18462037BD46CD
:10256C0080BD80B588B002AFF860B9603B6013469F
:10257C00FB800023FB75FB685B68B3F5827F12D18F
:10258C00FB689B68002B0ED1FB68042283F851205A
:10259C00FA883B6800931346BA68B968F86800F08B
:1025AC00E9F80346E2E0FB6893F85030012B01D1C7
:1025BC000223DBE0FB68012283F85020FEF7D0FFFA
:1025CC003861FB6893F85130DBB2012B02D0022347
:1025DC00FB75C2E0BB68002B02D0FB88002B02D13C
:1025EC000123FB75B9E0FB68042283F85120FB68DA
:1025FC0000225A65FB68BA689A63FB68FA889A8766
:10260C00FB68FA88DA87FB6800221A63FB680022F1
:10261C009A86FB680022DA86FB6800221A64FB6843
:10262C0000225A64FB689B68B3F5004F07D1FB6826
:10263C001B681A68FB681B6822F480421A60FB68EE
:10264C001B681B6803F04003402B07D0FB681B681A
:10265C001A68FB681B6842F040021A60FB68DB6872
:10266C00002B62D12EE0FB681B689B6803F0010312
:10267C00012B15D1FB681B6803F10C02FB689B6BEB
:10268C001278D2B21A70FB689B6B5A1CFB689A6367
:10269C00FB68DB8F9BB2013B9AB2FB68DA8711E0D7
:1026AC00FEF75EFF02463B69D31A3A689A4203D89A
:1026BC003B68B3F1FF3F02D13B68002B02D10323EF
:1026CC00FB754AE0FB68DB8F9BB2002BCBD131E072
:1026DC00FB681B689B6803F00103012B13D1FB689B
:1026EC001B68DA68FB689B6B92B21A80FB689B6B69
:1026FC009A1CFB689A63FB68DB8F9BB2013B9AB216
:10270C00FB68DA8711E0FEF72BFF02463B69D31A10
:10271C003A689A4203D83B68B3F1FF3F02D13B6859
:10272C00002B02D10323FB7517E0FB68DB8F9BB2F8
:10273C00002BCDD13A693968F86800F027FA0346C6
:10274C00002B02D0FB6820225A65FB685B6D002BC6
:10275C0002D00123FB7500E000BFFB68012283F867
:10276C005120FB68002283F85020FB7D1846183757
:10277C00BD4680BD80B58CB000AFF860B9607A60A2
:10278C007B800123FB62002387F82B30FB6893F8D6
:10279C005030012B01D102238AE1FB68012283F81E
:1027AC005020FEF7DDFE7862FB6893F8513087F815
:1027BC002330FB685B68FB617B887B8397F8233055
:1027CC00012B0FD0FB69B3F5827F07D1FB689B68A7
:1027DC00002B03D197F82330042B03D0022387F866
:1027EC002B305BE1BB68002B05D07B68002B02D043
:1027FC007B88002B03D1012387F82B304EE1FB683B
:10280C0093F85130DBB2042B03D0FB68052283F81C
:10281C005120FB6800225A65FB687A689A63FB6852
:10282C007A88DA87FB687A889A87FB68BA681A63B1
:10283C00FB687A88DA86FB687A889A86FB680022BD
:10284C001A64FB6800225A64FB681B681B6803F05F
:10285C004003402B07D0FB681B681A68FB681B6899
:10286C0042F040021A60FB68DB68B3F5006F78D168
:10287C00FB685B68002B02D07B8B012B66D1FB685D
:10288C001B6B1A88FB681B68DA60FB681B6B9A1C55
:10289C00FB681A63FB68DB8E9BB2013B9AB2FB6848
:1028AC00DA8653E0FB681B689B6803F00203022B7B
:1028BC001BD1FB68DB8E9BB2002B16D0FB6A012B65
:1028CC0013D1FB681B6B1A88FB681B68DA60FB680A
:1028DC001B6B9A1CFB681A63FB68DB8E9BB2013B7B
:1028EC009AB2FB68DA860023FB62FB681B689B6864
:1028FC0003F00103012B19D1FB68DB8F9BB2002B7A
:10290C0014D0FB681B68DA68FB689B6B92B21A8068
:10291C00FB689B6B9A1CFB689A63FB68DB8F9BB212
:10292C00013B9AB2FB68DA870123FB62FEF718FEC3
:10293C0002467B6AD31ABA6B9A4207D8BB6BB3F1C7
:10294C00FF3F03D0032387F82B30A7E0FB68DB8E17
:10295C009BB2002BA6D1FB68DB8F9BB2002BA1D1C5
:10296C007CE0FB685B68002B02D07B8B012B6BD16E
:10297C00FB681A6BFB681B680C3312781A70FB68C7
:10298C001B6B5A1CFB681A63FB68DB8E9BB2013B0A
:10299C009AB2FB68DA8657E0FB681B689B6803F009
:1029AC000203022B1CD1FB68DB8E9BB2002B17D0D1
:1029BC00FB6A012B14D1FB681A6BFB681B680C3388
:1029CC0012781A70FB681B6B5A1CFB681A63FB6845
:1029DC00DB8E9BB2013B9AB2FB68DA860023FB626A
:1029EC00FB681B689B6803F00103012B19D1FB6882
:1029FC00DB8F9BB2002B14D0FB681B68DA68FB687A
:102A0C009B6BD2B21A70FB689B6B5A1CFB689A6367
:102A1C00FB68DB8F9BB2013B9AB2FB68DA87012320
:102A2C00FB62FEF79DFD02467B6AD31ABA6B9A4293
:102A3C0003D8BB6BB3F1FF3F02D1BB6B002B03D1AF
:102A4C00032387F82B3029E0FB68DB8E9BB2002B2D
:102A5C00A2D1FB68DB8F9BB2002B9DD17A6AB96B3C
:102A6C00F86800F0E5F80346002B06D0012387F840
:102A7C002B30FB6820225A6510E0FB689B68002B0A
:102A8C000BD100237B61FB681B68DB687B61FB68F7
:102A9C001B689B687B617B6900E000BFFB680122BF
:102AAC0083F85120FB68002283F8502097F82B30D4
:102ABC0018463037BD4680BD80B584B000AFF86095
:102ACC00B9603B601346FB714CE03B68B3F1FF3FD0
:102ADC0048D0FEF745FD0246BB69D31A3A689A42C4
:102AEC0002D93B68002B3DD1FB681B685A68FB6818
:102AFC001B6822F0E0025A60FB685B68B3F5827FCA
:102B0C0011D1FB689B68B3F5004F04D0FB689B6840
:102B1C00B3F5806F07D1FB681B681A68FB681B68EC
:102B2C0022F040021A60FB689B6AB3F5005F0FD17C
:102B3C00FB681B681A68FB681B6822F400521A6059
:102B4C00FB681B681A68FB681B6842F400521A6029
:102B5C00FB68012283F85120FB68002283F8502087
:102B6C0003230FE0FB681B689A68BB681340BA68C4
:102B7C009A420CBF01230023DBB21A46FB799A421E
:102B8C00A3D1002318461037BD4680BD80B586B052
:102B9C0002AFF860B9607A60FB685B68B3F5827F5E
:102BAC0011D1FB689B68B3F5004F04D0FB689B68A0
:102BBC00B3F5806F07D1FB681B681A68FB681B684C
:102BCC0022F040021A60FB685B68B3F5827F17D174
:102BDC00FB689B68B3F5806F12D17B680093BB6870
:102BEC0000220121F868FFF767FF0346002B1AD07B
:102BFC00FB685B6D43F02002FB685A65032313E00E
:102C0C007B680093BB6800228021F868FFF754FFB3
:102C1C000346002B07D0FB685B6D43F02002FB687A
:102C2C005A65032300E0002318461037BD4680BDCB
:102C3C0080B586B002AFF860B9607A607B680093AB
:102C4C00BB6800228021F868FFF736FF0346002B93
:102C5C0007D0FB685B6D43F02002FB685A650323C9
:102C6C0000E0002318461037BD4680BD014B1868A4
:102C7C00704700BF1400002070B500250C4E0D4CA1
:102C8C00A41BA410A54209D100F036FC00250A4E65
:102C9C000A4CA41BA410A54205D170BD56F82530D2
:102CAC0098470135EEE756F8253098470135F2E79D
:102CBC00C83A0008C83A0008C83A0008CC3A0008DC
:102CCC0010B5431E0A44914200D110BD11F8014BBE
:102CDC0003F8014FF7E703460244934200D17047D3
:102CEC0003F8011BF9E700000EB46FF0004100B5CA
:102CFC009CB01DAB029006900791049108480949BD
:102D0C0053F8042B0591006802A9019300F066F8B2
:102D1C000022029B1A701CB05DF804EB03B07047E4
:102D2C00140000200802FFFF2DE9F0478E68824650
:102D3C009E420C469046994637D88A8912F4906F79
:102D4C0031D00223256809696F1A656905EB4505C1
:102D5C0095FBF3F509F101033B449D4238BF1D4639
:102D6C00530530D5294600F02DFB064650B90C23EF
:102D7C004FF0FF30CAF80030A38943F04003A38121
:102D8C00BDE8F0873A462169FFF79AFFA38923F43F
:102D9C00906343F08003A38126613E4426604E4637
:102DAC006561ED1BA5604E4500D94E463246414645
:102DBC00206800F0A1FAA36800209B1BA360236885
:102DCC001E442660DCE72A4600F056FB0646002827
:102DDC00E2D12169504600F0A9FAC8E72DE9F04F7D
:102DEC001D468B899DB01F0680460C4616460FD596
:102DFC000B696BB9402100F0E5FA2060206128B91D
:102E0C000C23C8F800304FF0FF30C8E0402363615A
:102E1C000023099320238DF8293030234FF0010B28
:102E2C008DF82A30039537463D4615F8013B0BB11A
:102E3C00252B3ED1B7EB060A0BD053463246214622
:102E4C004046FFF771FF013000F0A480099B53440A
:102E5C0009933B78002B00F09D8000234FF0FF324C
:102E6C00CDE90523049307938DF853301A932F461D
:102E7C00052217F8011B504800F030FA049BD0B91A
:102E8C00D90644BF20228DF853201A0744BF2B22A9
:102E9C008DF853202A782A2A15D02F4600200A258F
:102EAC00079A394611F8013B303B092B4DD9B8B183
:102EBC000FE02F46B8E7404A3D46801A0BFA00F067
:102ECC0018430490D3E7039A111D12680391002A4A
:102EDC0001DB079204E0524243F002030792049391
:102EEC003B782E2B0CD17B782A2B33D1039B0237CA
:102EFC001A1D1B680392002BB8BF4FF0FF330593CC
:102F0C002E4D03223978284600F0E8F938B14023D9
:102F1C00401B03FA00F0049B0137034304933978F8
:102F2C00062227487E1C8DF8281000F0D7F90028BF
:102F3C0038D0244B13BB039B073323F00703083310
:102F4C000393099B4B4409936DE705FB0232012067
:102F5C000F46A6E700230A25194601370593384684
:102F6C0010F8012B303A092A03D9002BC8D005914F
:102F7C00C6E705FB012101230746F0E703AB0093ED
:102F8C002246114B04A94046AFF30080B0F1FF3F3D
:102F9C008146D6D1A3895B063FF535AF09981DB0A4
:102FAC00BDE8F08F03AB00932246074B04A94046C3
:102FBC0000F082F8EAE700BF943A00089A3A000859
:102FCC009E3A000800000000352D00082DE9F0475E
:102FDC0091461F468A680B6906469342B8BF134652
:102FEC00C9F8003091F843200C46DDF8208012B16E
:102FFC000133C9F800302368990642BFD9F8003074
:10300C000233C9F80030256815F0060507D104F124
:10301C00190AE368D9F800209B1AAB4229DC94F812
:10302C0043302268003318BF012392062ED404F1DA
:10303C00430239463046C047013021D02368E56849
:10304C0003F00603042B18BF0025D9F800204FF01D
:10305C00000908BFAD1AA368226908BF25EAE57507
:10306C009342C4BF9B1AED181A344D451AD1002057
:10307C0008E00123524639463046C047013003D19F
:10308C004FF0FF30BDE8F0870135C2E73020E11882
:10309C0081F843005A1C94F845102244023382F8FC
:1030AC004310C4E70123224639463046C04701305D
:1030BC00E6D009F10109D8E72DE9F04301F1430C01
:1030CC000C46097E85B06E291746064698460C9A22
:1030DC0000F0B38022D8632936D00AD8002900F03A
:1030EC00B980582900F0838004F1420584F842101D
:1030FC0032E0642901D06929F6D1206813680506ED
:10310C0003F104012AD51B681160002B03DA2D2270
:10311C005B4284F843206F480A2239E0732900F09F
:10312C009D8008D86F2920D07029DDD1236843F009
:10313C002003236003E0752917D07829D4D1782394
:10314C00654884F8453055E0136804F14205191DB3
:10315C001B68116084F8423001238CE01B6810F06E
:10316C00400F116018BF1BB2CFE713682568181DFC
:10317C001060280601D51B6802E06806FBD51B8889
:10318C006F2914BF0A2208225248002184F84310E8
:10319C006568002DA560C0F29580216821F00401BE
:1031AC002160002B3DD1002D40F08E806546082A11
:1031BC000BD12368DB0708D5236962689A42DEBF0E
:1031CC00302305F8013C05F1FF35ACEB0503236119
:1031DC00CDF800803B4603AA21463046FFF7F6FEA9
:1031EC0001304DD14FF0FF3005B0BDE8F0833948C8
:1031FC0084F84510136821681D1D1B6815600A06AC
:10320C000BD5CA0744BF41F0200121601BB92268CD
:10321C0022F0200222601022B7E74D0648BF9BB275
:10322C00EFE76546B3FBF2F102FB1133C35C05F823
:10323C00013D0B460029F5D1B9E713682568181D27
:10324C006169106028061B6801D5196002E06A06E6
:10325C00FBD51980002365462361B9E71368191D56
:10326C0011601D6862680021284600F037F808B12B
:10327C00401B606063682361002384F84330A7E738
:10328C0023692A4639463046C0470130AAD0236804
:10329C009B0713D4E068039B9842B8BF1846A3E77A
:1032AC0001234A4639463046C04701309AD0013591
:1032BC00E368039A9B1AAB42F2DCEBE7002504F1BE
:1032CC001909F5E7002BACD1037804F1420584F819
:1032DC0042306CE7A53A0008B63A000810B5C9B2FE
:1032EC0002449042034601D1002303E01C780130D4
:1032FC008C42F6D1184610BD884210B501EB020382
:10330C0007D8421E99420AD011F8014B02F8014F1E
:10331C00F8E78342F5D98118D21AD34200D110BDF7
:10332C0013F8014D01F8014DF7E7000038B50546DB
:10333C00002943D051F8043C0C1F002BB8BFE418F3
:10334C0000F0D0F81E4A1368104633B9636014605D
:10335C002846BDE8384000F0C6B8A3420BD9216816
:10336C006218934201BF1A685B685218226063604E
:10337C000460EDE713465A680AB1A242FAD91968FB
:10338C005818A0420BD12068014458188242196089
:10339C00DED110685268014419605A60D8E702D92E
:1033AC000C232B60D4E7206821188A4201BF1168D6
:1033BC0052680918216062605C60C9E738BD00BFC3
:1033CC000801002070B5CD1C25F0030508350C2D27
:1033DC0038BF0C25002D064601DBA94203D90C236E
:1033EC003360002070BD00F07DF8214A146821463E
:1033FC0091B9204C23681BB9304600F063F820606B
:10340C002946304600F05EF8431C24D10C2330468C
:10341C00336000F068F8E4E70B685B1B18D40B2BE7
:10342C000FD90B60CC18CD50304600F05CF804F18D
:10343C000B00231D20F00700C31AD3D05A42E250D0
:10344C00D0E74B688C4216BF636013600C46EBE709
:10345C000C464968CCE7C41C24F00304A04205D0F8
:10346C00211A304600F02EF80130CFD02560DBE772
:10347C00080100200C010020F8B5074614460E4642
:10348C0021B9BDE8F8401146FFF79CBF22B9FFF700
:10349C004DFF25462846F8BD00F026F8A0420FD275
:1034AC0021463846FFF78EFF05460028F2D03146FC
:1034BC002246FFF705FC31463846FFF737FFE9E7B0
:1034CC003546E7E738B50023054C0546084623602A
:1034DC00FDF768FF431C02D1236803B12B6038BD94
:1034EC008C0100207047704751F8043C181F002BCA
:1034FC00BCBF0B58C0187047F8B500BFF8BC08BC6F
:10350C009E467047F8B500BFF8BC08BC9E46704795
:10351C004352433A0D0A0909456E61626C65642C8D
:10352C002032204279746573200D0A004352433ACD
:10353C000D0A0909456E61626C65642C20312042CC
:10354C00797465200D0A00004352433A0D0A0909AB
:10355C0044697361626C6564200D0A00454E4141FB
:10356C003A0D0A090950303A0925640D0A09095027
:10357C00313A0925640D0A090950323A0925640DBE
:10358C000A090950333A0925640D0A090950343ADD
:10359C000925640D0A090950353A0925640D0A00FC
:1035AC00454E5F5258414444523A0D0A0909503075
:1035BC003A0925640D0A090950313A0925640D0AA6
:1035CC00090950323A0925640D0A090950333A09A0
:1035DC0025640D0A090950343A0925640D0A0909B4
:1035EC0050353A0925640D0A000000005345545526
:1035FC00505F41573A0D0A090925642062797465B8
:10360C0073200D0A0000000052465F43483A0D0A31
:10361C0009092564204348200D0A000044617461A7
:10362C0020526174653A0D0A0909324D627073209B
:10363C000D0A00004461746120526174653A0D0AF0
:10364C000909314D627073200D0A000052465F501B
:10365C0057523A0D0A09092D31386442200D0A00DF
:10366C0052465F5057523A0D0A09092D31326442C5
:10367C00200D0A0052465F5057523A0D0A09092D87
:10368C00366442200D0A000052465F5057523A0DE4
:10369C000A0909306442200D0A00000052585F509C
:1036AC00697065302041646472733A0D0A0909250A
:1036BC003032582C253032582C253032582C2530AD
:1036CC0032582C2530325820200D0A0052585F50A9
:1036DC00697065312041646472733A0D0A090925D9
:1036EC003032582C253032582C253032582C25307D
:1036FC0032582C2530325820200D0A0052585F5079
:10370C00697065322041646472733A0D0A09097854
:10371C00782C78782C78782C78782C2530325820A6
:10372C00200D0A0052585F50697065332041646463
:10373C0072733A0D0A090978782C78782C78782CE1
:10374C0078782C2530325820200D0A0052585F50C2
:10375C00697065342041646472733A0D0A09097802
:10376C00782C78782C78782C78782C253032582056
:10377C00200D0A0052585F50697065352041646411
:10378C0072733A0D0A090978782C78782C78782C91
:10379C0078782C2530325820200D0A0054582041BE
:1037AC00646472733A0D0A0909253032582C25309D
:1037BC0032582C253032582C253032582C253032AA
:1037CC005820200D0A00000052585F50575F5030AF
:1037DC003A0D0A09092564206279746573200D0A73
:1037EC000000000052585F50575F50313A0D0A09E3
:1037FC00092564206279746573200D0A00000000AD
:10380C0052585F50575F50323A0D0A09092564200F
:10381C006279746573200D0A0000000052585F50E5
:10382C00575F50333A0D0A09092564206279746593
:10383C0073200D0A0000000052585F50575F50343F
:10384C003A0D0A09092564206279746573200D0A02
:10385C000000000052585F50575F50353A0D0A096E
:10386C00092564206279746573200D0A000000003C
:10387C0044594E50445F706970653A0D0A090950FD
:10388C00303A0925640D0A090950313A0925640DAD
:10389C000A090950323A0925640D0A090950333ACC
:1038AC000925640D0A090950343A0925640D0A09E1
:1038BC000950353A0925640D0A000000454E5F4455
:1038CC00504C3A0D0A0909456E61626C6564200D15
:1038DC000A000000454E5F44504C3A0D0A09094459
:1038EC00697361626C6564200D0A0000454E5F418E
:1038FC00434B5F5041593A0D0A0909456E61626CA0
:10390C006564200D0A000000454E5F41434B5F503B
:10391C0041593A0D0A090944697361626C65642066
:10392C000D0A00000D0A2A2A2A2A2A2A2A2A2A2AB9
:10393C002A2A2A2A2A2A2A2A2A2A2A2A2A2A2A2ADB
:10394C002A2A2A2A2A2A2A2A2A2A2A2A2A2A2A2ACB
:10395C002A2A2A2A0D0A00000D0A2D2D2D2D2D2D77
:10396C002D2D2D2D2D2D2D2D2D2D2D2D2D2D2D2D7B
:10397C002D2D2D0D0A000000535441545553207227
:10398C0065673A0D0A090952585F44523A090925EC
:10399C00640D0A090954585F44533A090925640D0A
:1039AC000A09094D41585F52543A090925640D0A18
:1039BC00090952585F505F4E4F3A0925640D0A09A8
:1039CC000954585F46554C4C3A0925640D0A0000C1
:1039DC00434F4E464947207265673A0D0A09095014
:1039EC0057525F55503A090925640D0A090950527E
:1039FC00494D5F52583A0925640D0A004649464F15
:103A0C0020537461747573207265673A0D0A090945
:103A1C0054585F46554C4C3A090925640D0A09095E
:103A2C0054585F454D5054593A090925640D0A09FB
:103A3C000952585F46554C4C3A090925640D0A0940
:103A4C000952585F454D5054593A090925640D0ADD
:103A5C000000000002030405060708090A0B0C0D00
:103A6C000E0F1010010200000A0B0C0D0E0F1000AF
:103A7C0011121314151600000000000000000000C5
:103A8C000102030406070809232D302B2000686C63
:103A9C004C00656667454647003031323334353665
:103AAC00373839414243444546003031323334359E
:0C3ABC00363738396162636465660000CB
:043AC80031010008C0
:043ACC000D010008E0
:103AD000AA443322110000000024F400100000006A
:103AE000010000001800002000000000000000009D
:103AF00000000000000000000000000000000000C6
:103B000000000000000000000000000000000000B5
:103B100000000000000000000000000000000000A5
:103B20000000000000000000000000000000000095
:103B30000000000000000000000000000000000085
:083B400000000000000000007D
:04000005080014716A
:00000001FF
