:020000040800F2
:1000000000500020C90900084508000851080008F0
:10001000570800085D080008630800080000000099
:100020000000000000000000000000006908000857
:100030007508000800000000810800088D0800080D
:10004000110A0008110A0008110A0008110A000824
:10005000110A0008110A0008110A0008110A000814
:10006000110A0008110A0008110A0008110A000804
:10007000110A0008110A0008110A0008110A0008F4
:10008000110A0008110A0008110A0008110A0008E4
:10009000110A0008110A0008110A0008110A0008D4
:1000A000110A000899080008110A0008110A00083E
:1000B000AD080008C1080008110A0008110A00086C
:1000C000110A0008110A0008110A0008110A0008A4
:1000D000110A0008110A0008110A0008110A000894
:1000E000110A0008110A0008110A000800000000A7
:1000F0000000000000000000000000000000000000
:0C01000000000000000000005FF808F1A3
:10010C0010B5054C237833B9044B13B10448AFF345
:10011C0000800123237010BD0C00002000000000A3
:10012C00BC1F000808B5034B1BB103490348AFF3D0
:10013C00008008BD0000000010000020BC1F00085B
:10014C0080F0004002E000BF81F0004142001FBF80
:10015C005FEA410392EA030F7FEA226C7FEA236C89
:10016C006AD04FEA1262D2EB1363C1BFD21841407E
:10017C0048404140B8BF5B42192B88BF704710F014
:10018C00004F40F4000020F07F4018BF404211F0B7
:10019C00004F41F4000121F07F4118BF494292EA1F
:1001AC00030F3FD0A2F1010241FA03FC10EB0C004B
:1001BC00C3F1200301FA03F100F0004302D54942D8
:1001CC0060EB4000B0F5000F13D3B0F1807F06D385
:1001DC0040084FEA310102F10102FE2A51D2B1F17D
:1001EC00004F40EBC25008BF20F0010040EA030072
:1001FC007047490040EB000010F4000FA2F101021F
:10020C00EDD1B0FA80FCACF1080CB2EB0C0200FAA8
:10021C000CF0AABF00EBC25052421843BCBFD040F6
:10022C001843704792F0000F81F4000106BF80F470
:10023C0000000132013BB5E74FEA41037FEA226C33
:10024C0018BF7FEA236C21D092EA030F04D092F0FE
:10025C00000F08BF0846704790EA010F1CBF002032
:10026C00704712F07F4F04D1400028BF40F000408F
:10027C00704712F100723CBF00F50000704700F0AF
:10028C00004343F0FE4040F4000070477FEA2262D6
:10029C0016BF08467FEA23630146420206BF5FEAA7
:1002AC00412390EA010F40F4800070474FF00003A7
:1002BC0004E000BF10F0004348BF40425FEA000C6E
:1002CC0008BF704743F0964301464FF000001CE016
:1002DC0050EA010208BF70474FF000030AE000BF6C
:1002EC0050EA010208BF704711F0004302D54042AA
:1002FC0061EB41015FEA010C02BF8446014600201C
:10030C0043F0B64308BFA3F18053A3F50003BCFA36
:10031C008CF2083AA3EBC25310DB01FA02FC6344E3
:10032C0000FA02FCC2F12002BCF1004F20FA02F2EA
:10033C0043EB020008BF20F00100704702F12002DD
:10034C0001FA02FCC2F1200250EA4C0021FA02F23E
:10035C0043EB020008BF20EADC70704780B500AFA9
:10036C0000F052FB00F026F800F06CF900F068F891
:10037C0000F0C2F800F018F9094B5B6A9AB2094B0D
:10038C001A804FF080435B6A9AB2074B1A80074B76
:10039C004FF000021A60064B4FF000021A60EBE7B8
:1003AC00002C0140C0000020040100207800002037
:1003BC003000002080B590B000AF07F11803282260
:1003CC000021184601F0ECFD3B1D00221A605A601A
:1003DC009A60DA601A610123BB614FF48033FB61D0
:1003EC0000233B620123BB6202237B634FF4803307
:1003FC00BB634FF4E013FB6307F11803184600F0DE
:10040C00CDFD0346002B01D000F03EF90F237B609D
:10041C000223BB600023FB604FF480633B6100232D
:10042C007B613B1D0221184601F038F80346002B76
:10043C0001D000F029F900BF4037BD4680BD000057
:10044C0080B58CB000AF07F10C03242200211846B4
:10045C0001F0A6FD3B1D00221A605A60244B254A70
:10046C001A60234B00225A60214B00229A60204BC9
:10047C004FF6FE72DA601E4B00221A611C4B0022F2
:10048C005A611B4B00229A610323FB6000233B61E2
:10049C0001237B610023BB610023FB6100233B62D2
:1004AC0001237B620023BB620023FB6207F10C0378
:1004BC0019460F4801F087F90346002B01D000F0D4
:1004CC00E3F800237B600023BB603B1D1946084802
:1004DC0001F0ECFC0346002B01D000F0D5F80A2308
:1004EC003B610A233B6200BF3037BD4680BD00BF75
:1004FC007C000020002C014080B58CB000AF07F1CF
:10050C000C0324220021184601F04AFD3B1D002259
:10051C001A605A60234B4FF080421A60214B002224
:10052C005A60204B00229A601E4B4FF6FE72DA6026
:10053C001C4B00221A611B4B00229A610323FB60A7
:10054C0000233B6101237B610023BB610023FB6122
:10055C0000233B6201237B620023BB620023FB620E
:10056C0007F10C0319460F4801F02DF90346002B37
:10057C0001D000F089F800237B600023BB603B1D99
:10058C001946084801F092FC0346002B01D000F0FC
:10059C007BF80A233B610A233B6200BF3037BD4620
:1005AC0080BD00BFC400002080B586B000AF07F14D
:1005BC00080300221A605A609A60DA603B460022F7
:1005CC001A605A601D4B1E4A1A601C4B63225A60FB
:1005DC001A4B00229A60194B40F2CF22DA60174B6B
:1005EC0000221A61154B00229A61144801F0C0F8E0
:1005FC000346002B01D000F047F84FF48053BB604A
:10060C0007F1080319460D4801F073FA0346002B55
:10061C0001D000F039F800233B6000237B603B469F
:10062C001946064801F042FC0346002B01D000F0AD
:10063C002BF800BF1837BD4680BD00BF340000202A
:10064C000004004080B483B000AF0E4B9B690D4A90
:10065C0043F0200393610B4B9B6903F020037B60F9
:10066C007B68084B9B69074A43F004039361054B75
:10067C009B6903F004033B603B6800BF0C37BD462D
:10068C0080BC70470010024080B400AF00BFBD4674
:10069C0080BC704780B485B000AF154B9B69144A81
:1006AC0043F001039361124B9B6903F00103BB60A0
:1006BC00BB680F4BDB690E4A43F08053D3610C4B84
:1006CC00DB6903F080537B607B680A4B5B68FB60E3
:1006DC00FB6823F0E063FB60FB6843F00073FB6096
:1006EC00044AFB68536000BF1437BD4680BC70479A
:1006FC00001002400000014080B58AB000AF786065
:10070C0007F1180300221A605A609A60DA607B685D
:10071C001B68334A93422DD1324B9B69314A43F4C7
:10072C00006393612F4B9B6903F400637B617B69CE
:10073C002C4B9B692B4A43F004039361294B9B6917
:10074C0003F004033B613B694FF44073BB6100232E
:10075C00FB6100233B6207F118031946224800F0A5
:10076C00C3FA00220021192000F087FA192000F0AA
:10077C00A0FA30E07B681B68B3F1804F2BD1194B8A
:10078C00DB69184A43F00103D361164BDB6903F0B4
:10079C000103FB60FB68134B9B69124A43F0040393
:1007AC009361104B9B6903F00403BB60BB6803238C
:1007BC00BB610023FB6100233B6207F11803194660
:1007CC00094800F091FA002200211C2000F055FA93
:1007DC001C2000F06EFA00BF2837BD4680BD00BF5C
:1007EC00002C0140001002400008014080B584B08C
:1007FC0000AF78607B681B680D4A934213D10D4B98
:10080C00DB690C4A43F00203D3610A4BDB6903F04A
:10081C000203FB60FB68002200211D2000F02DFA72
:10082C001D2000F046FA00BF1037BD4680BD00BF4A
:10083C00000400400010024080B400AF00BFBD4671
:10084C0080BC704780B400AFFEE780B400AFFEE719
:10085C0080B400AFFEE780B400AFFEE780B400AF19
:10086C0000BFBD4680BC704780B400AF00BFBD4622
:10087C0080BC704780B400AF00BFBD4680BC7047E1
:10088C0080B500AF00F006F900BF80BD80B500AFA9
:10089C00024801F026F800BF80BD00BF7C0000209C
:1008AC0080B500AF024801F01CF800BF80BD00BF4E
:1008BC00C400002080B500AF1D4801F012F81D4B9C
:1008CC001A881D4B1A801D4B1A881D4B1A801D4B04
:1008DC005B6A9AB2174B1A804FF080435B6A9AB2EC
:1008EC00164B1A80134B1B881A46134B1B88D31AB2
:1008FC00154A82FB03129211DB17D31A1846FFF725
:10090C00D9FC0246114B1A600C4B1B881A460C4B37
:10091C001B88D31A0C4A82FB03129211DB17D31AD1
:10092C001846FFF7C7FC0246094B1A6000BF80BD92
:10093C003400002006010020740000200801002073
:10094C0028000020002C0140D34D62102C00002008
:10095C00BC00002080B400AF154B1B68144A43F058
:10096C0001031360124B5A681149124B13404B6030
:10097C000F4B1B680E4A23F0847323F480331360EF
:10098C000B4B1B680A4A23F480231360084B5B68EB
:10099C00074A23F4FE035360054B4FF41F029A6081
:1009AC00054B4FF000629A6000BFBD4680BC70479B
:1009BC00001002400000FFF800ED00E0002103E011
:1009CC000B4B5B58435004310A480B4B42189A426C
:1009DC00F6D30A4A02E0002342F8043B084B9A4241
:1009EC00F9D3FFF7B7FF01F0B7FAFFF7B7FC704781
:1009FC0000200008000000200C0000200C0000204B
:100A0C0010010020FEE7000080B500AF084B1B680A
:100A1C00074A43F010031360032000F023F9002071
:100A2C0000F008F8FFF736FE0023184680BD00BF23
:100A3C000020024080B582B000AF7860124B1A687B
:100A4C00124B1B7819464FF47A73B3FBF1F3B2FBDC
:100A5C00F3F3184600F03BF90346002B01D00123B9
:100A6C000EE07B680F2B0AD8002279684FF0FF301C
:100A7C0000F003F9064A7B681360002300E00123B1
:100A8C0018460837BD4680BD000000200800002035
:100A9C000400002080B400AF054B1B781A46054BB0
:100AAC001B681344034A136000BFBD4680BC7047EB
:100ABC00080000200C01002080B400AF024B1B6822
:100ACC001846BD4680BC70470C01002080B485B030
:100ADC0000AF78607B6803F00703FB600C4BDB68AE
:100AEC00BB60BA684FF6FF031340BB60FB681A0289
:100AFC00BB68134343F0BF6343F40033BB60044A49
:100B0C00BB68D36000BF1437BD4680BC704700BFC4
:100B1C0000ED00E080B400AF044BDB681B0A03F06F
:100B2C0007031846BD4680BC704700BF00ED00E0CF
:100B3C0080B483B000AF0346FB7197F90730002BEC
:100B4C000BDBFB7903F01F02064997F907305B09B1
:100B5C00012000FA02F241F8232000BF0C37BD46F9
:100B6C0080BC704700E100E080B483B000AF034666
:100B7C003960FB7197F90730002B0ADB3B68DAB25E
:100B8C000C4997F907301201D2B20B4483F80023B9
:100B9C000AE03B68DAB20849FB7903F00F03043B27
:100BAC001201D2B20B441A7600BF0C37BD4680BC82
:100BBC00704700BF00E100E000ED00E080B489B0B8
:100BCC0000AFF860B9607A60FB6803F00703FB6163
:100BDC00FB69C3F10703042B28BF0423BB61FB692A
:100BEC000433062B02D9FB69033B00E000237B6135
:100BFC004FF0FF32BB6902FA03F3DA43BB681A40C9
:100C0C007B699A404FF0FF317B6901FA03F3D943BA
:100C1C007B680B40134318462437BD4680BC704795
:100C2C0080B582B000AF78607B68013BB3F1807F08
:100C3C0001D301230FE00A4A7B68013B53600F216B
:100C4C004FF0FF30FFF790FF054B00229A60044BEA
:100C5C0007221A60002318460837BD4680BD00BF26
:100C6C0010E000E080B582B000AF78607868FFF7E4
:100C7C002DFF00BF0837BD4680BD80B586B000AFE4
:100C8C000346B9607A60FB7300237B61FFF742FF78
:100C9C0078617A68B9687869FFF790FF024697F92E
:100CAC000F3011461846FFF75FFF00BF1837BD46DF
:100CBC0080BD80B582B000AF0346FB7197F9073059
:100CCC001846FFF735FF00BF0837BD4680BD80B51D
:100CDC0082B000AF78607868FFF7A2FF0346184631
:100CEC000837BD4680BD000080B48BB000AF786083
:100CFC00396000237B6200233B6227E101227B6A7F
:100D0C0002FA03F3FB613B681B68FA691340BB6191
:100D1C00BA69FB699A4240F016813B685B68122BFA
:100D2C0034D0122B0DD8022B2BD0022B04D8002B35
:100D3C0031D0012B1CD048E0032B43D0112B1BD0FE
:100D4C0043E0894A934226D0874A934206D8874A81
:100D5C00934220D0864A93421DD036E0854A934276
:100D6C0019D0854A934216D0844A934213D02CE072
:100D7C003B68DB683B6228E03B68DB6804333B6222
:100D8C0023E03B68DB6808333B621EE03B68DB68B2
:100D9C000C333B6219E03B689B68002B02D10423A7
:100DAC003B6212E03B689B68012B05D108233B6238
:100DBC007B68FA691A6108E008233B627B68FA6970
:100DCC005A6102E000233B6200BFBB69FF2B01D8D4
:100DDC007B6801E07B6804337B61BB69FF2B02D825
:100DEC007B6A9B0002E07B6A083B9B003B617B6952
:100DFC001A680F213B6901FA03F3DB431A40396A85
:100E0C003B6901FA03F31A437B691A603B685B6820
:100E1C0003F08053002B00F09680594B9B69584A85
:100E2C0043F001039361564B9B6903F00103BB60D4
:100E3C00BB68544A7B6A9B08023352F82330FB6030
:100E4C007B6A03F003039B000F2202FA03F3DB43DC
:100E5C00FA681340FB607B684B4A934213D07B6863
:100E6C004A4A93420DD07B68494A934207D07B682B
:100E7C00484A934201D1032306E0042304E00223F1
:100E8C0002E0012300E000237A6A02F003029200E0
:100E9C009340FA681343FB603A497B6A9B08023320
:100EAC00FA6841F823203B685B6803F48033002B1D
:100EBC0006D0394B1A683849BB6913430B6006E0FE
:100ECC00354B1A68BB69DB43334913400B603B68F5
:100EDC005B6803F40033002B06D02F4B5A682E4965
:100EEC00BB6913434B6006E02B4B5A68BB69DB4371
:100EFC00294913404B603B685B6803F48013002B5B
:100F0C0006D0254B9A682449BB6913438B6006E0D5
:100F1C00214B9A68BB69DB431F4913408B603B68CC
:100F2C005B6803F40013002B06D01B4BDA681A49DC
:100F3C00BB691343CB6006E0174BDA68BB69DB4334
:100F4C0015491340CB607B6A01337B623B681A689E
:100F5C007B6A22FA03F3002B7FF4D0AE00BF2C3750
:100F6C00BD4680BC704700BF00002110000011106E
:100F7C00000012100000311000003210000022108E
:100F8C00001002400000014000080140000C01402C
:100F9C0000100140001401400004014080B586B0EF
:100FAC0000AF78607B68002B01D101236CE27B6879
:100FBC001B6803F00103002B00F08780924B5B68E9
:100FCC0003F00C03042B0CD08F4B5B6803F00C0369
:100FDC00082B12D18C4B5B6803F48033B3F5803F44
:100FEC000BD1894B1B6803F40033002B6CD07B684E
:100FFC005B68002B68D1012346E27B685B68B3F524
:10100C00803F06D1804B1B687F4A43F480331360CA
:10101C002EE07B685B68002B0CD17B4B1B687A4AFB
:10102C0023F480331360784B1B68774A23F48023B6
:10103C0013601DE07B685B68B3F5A02F0CD1724B7D
:10104C001B68714A43F4802313606F4B1B686E4A14
:10105C0043F4803313600BE06B4B1B686A4A23F438
:10106C0080331360684B1B68674A23F4802313603A
:10107C007B685B68002B13D0FFF71EFD386108E01E
:10108C00FFF71AFD02463B69D31A642B01D90323DF
:10109C00FAE15D4B1B6803F40033002BF0D014E035
:1010AC00FFF70AFD386108E0FFF706FD02463B69D1
:1010BC00D31A642B01D90323E6E1534B1B6803F4C9
:1010CC000033002BF0D100E000BF7B681B6803F0FD
:1010DC000203002B63D04C4B5B6803F00C03002B1A
:1010EC000BD0494B5B6803F00C03082B1CD1464B0F
:1010FC005B6803F48033002B16D1434B1B6803F061
:10110C000203002B05D07B681B69012B01D0012346
:10111C00BAE13D4B1B6823F0F8027B685B69DB008E
:10112C00394913430B603AE07B681B69002B20D0D4
:10113C00364B01221A60FFF7BFFC386108E0FFF75D
:10114C00BBFC02463B69D31A022B01D903239BE15A
:10115C002D4B1B6803F00203002BF0D02A4B1B68AD
:10116C0023F0F8027B685B69DB00274913430B60B3
:10117C0015E0264B00221A60FFF79EFC386108E050
:10118C00FFF79AFC02463B69D31A022B01D90323C1
:10119C007AE11D4B1B6803F00203002BF0D17B6836
:1011AC001B6803F00803002B3AD07B689B69002B6B
:1011BC0019D0174B01221A60FFF77EFC386108E04A
:1011CC00FFF77AFC02463B69D31A022B01D90323A1
:1011DC005AE10D4B5B6A03F00203002BF0D00120A7
:1011EC0000F0A8FA1CE00A4B00221A60FFF764FC1E
:1011FC0038610FE0FFF760FC02463B69D31A022B03
:10120C0008D9032340E100BF001002400000424215
:10121C00800442429E4B5B6A03F00203002BE9D12F
:10122C007B681B6803F00403002B00F0A6800023EE
:10123C00FB75974BDB6903F08053002B0DD1944B5E
:10124C00DB69934A43F08053D361914BDB6903F024
:10125C008053BB60BB680123FB758E4B1B6803F48A
:10126C008073002B18D18B4B1B688A4A43F4807314
:10127C001360FFF721FC386108E0FFF71DFC024604
:10128C003B69D31A642B01D90323FDE0814B1B6806
:10129C0003F48073002BF0D07B68DB68012B06D144
:1012AC007B4B1B6A7A4A43F0010313622DE07B6887
:1012BC00DB68002B0CD1764B1B6A754A23F00103BB
:1012CC001362734B1B6A724A23F0040313621CE013
:1012DC007B68DB68052B0CD16D4B1B6A6C4A43F0A9
:1012EC00040313626A4B1B6A694A43F001031362DD
:1012FC000BE0674B1B6A664A23F001031362644BD5
:10130C001B6A634A23F0040313627B68DB68002BBF
:10131C0015D0FFF7D1FB38610AE0FFF7CDFB024691
:10132C003B69D31A41F28832934201D90323ABE0D3
:10133C00574B1B6A03F00203002BEED014E0FFF7AF
:10134C00BBFB38610AE0FFF7B7FB02463B69D31AD7
:10135C0041F28832934201D9032395E04C4B1B6A2E
:10136C0003F00203002BEED1FB7D012B05D1484B82
:10137C00DB69474A23F08053D3617B68DB69002B20
:10138C0000F08180424B5B6803F00C03082B61D0AA
:10139C007B68DB69022B46D13F4B00221A60FFF7BA
:1013AC008BFB386108E0FFF787FB02463B69D31AD9
:1013BC00022B01D9032367E0354B1B6803F0007344
:1013CC00002BF0D17B681B6AB3F5803F08D1304B02
:1013DC005B6823F400327B689B682D4913434B6098
:1013EC002B4B5B6823F474127B68196A7B685B6A0D
:1013FC000B43274913434B60274B01221A60FFF71D
:10140C005BFB386108E0FFF757FB02463B69D31AD8
:10141C00022B01D9032337E01D4B1B6803F000732B
:10142C00002BF0D02FE01C4B00221A60FFF744FB7E
:10143C00386108E0FFF740FB02463B69D31A022BE8
:10144C0001D9032320E0124B1B6803F00073002B1F
:10145C00F0D118E07B68DB69012B01D1012313E08B
:10146C000B4B5B68FB60FB6803F480327B681B6A88
:10147C009A4206D1FB6803F470127B685B6A9A424D
:10148C0001D0012300E0002318461837BD4680BD6B
:10149C0000100240007000406000424280B584B0F1
:1014AC0000AF786039607B68002B01D10123D0E05C
:1014BC006A4B1B6803F007033A689A4210D9674BD2
:1014CC001B6823F0070265493B6813430B60634BB1
:1014DC001B6803F007033A689A4201D00123B8E075
:1014EC007B681B6803F00203002B20D07B681B6811
:1014FC0003F00403002B05D0594B5B68584A43F4A6
:10150C00E06353607B681B6803F00803002B05D075
:10151C00534B5B68524A43F460535360504B5B68C7
:10152C0023F0F0027B689B684D4913434B607B684A
:10153C001B6803F00103002B40D07B685B68012B18
:10154C0007D1474B1B6803F40033002B15D1012343
:10155C007FE07B685B68022B07D1414B1B6803F073
:10156C000073002B09D1012373E03D4B1B6803F082
:10157C000203002B01D101236BE0394B5B6823F094
:10158C0003027B685B68364913434B60FFF794FAA0
:10159C00F8600AE0FFF790FA0246FB68D31A41F2B2
:1015AC008832934201D9032353E02D4B5B6803F03F
:1015BC000C027B685B689B009A42EBD1274B1B6843
:1015CC0003F007033A689A4210D2244B1B6823F0AD
:1015DC00070222493B6813430B60204B1B6803F046
:1015EC0007033A689A4201D0012332E07B681B68FA
:1015FC0003F00403002B08D0194B5B6823F4E06262
:10160C007B68DB68164913434B607B681B6803F0EF
:10161C000803002B09D0124B5B6823F460527B68E3
:10162C001B69DB000E4913434B6000F021F80146A7
:10163C000B4B5B681B0903F00F030A4AD35C21FABE
:10164C0003F3094A1360094B1B681846FFF7F2F9BC
:10165C00002318461037BD4680BD00BF0020024055
:10166C0000100240E81F00080000002004000020C9
:10167C0090B48AB000AF2A4B3C1D0FCB84E80F000E
:10168C00284B1B883B800023FB610023BB6100239C
:10169C007B6200237B6100233B62234B5B68FB6115
:1016AC00FB6903F00C03042B02D0082B03D02DE0B4
:1016BC001E4B3B622DE0FB699B0C03F00F0307F103
:1016CC002802134413F8243C7B61FB6903F4803338
:1016DC00002B13D0144B5B685B0C03F0010307F178
:1016EC002802134413F8283CBB617B690F4A02FBA8
:1016FC0003F2BB69B2FBF3F37B6204E07B690C4A37
:10170C0002FB03F37B627B6A3B6202E0074B3B62AA
:10171C0000BF3B6A18462837BD4690BC704700BFD7
:10172C00D41F0008E41F00080010024000127A00C9
:10173C0000093D0080B485B000AF78600A4B1B688F
:10174C000A4AA2FB03235B0A7A6802FB03F3FB60E1
:10175C0000BFFB685A1EFA60002BF9D100BF14378A
:10176C00BD4680BC704700BF00000020D34D621006
:10177C0080B582B000AF78607B68002B01D101236B
:10178C001DE07B6893F83D30DBB2002B06D17B6803
:10179C00002283F83C207868FFF728F87B68022247
:1017AC0083F83D207B681A687B6804331946104621
:1017BC0000F084FA7B68012283F83D200023184650
:1017CC000837BD4680BD80B586B000AF7860396003
:1017DC007B68002B01D101237FE07B6893F83D30BF
:1017EC00DBB2002B06D17B68002283F83C207868A2
:1017FC00FEF782FF7B68022283F83D207B681B6822
:10180C009B687A68126823F4804323F00703936083
:10181C007B681A687B6804331946104600F04EFA50
:10182C007B681B689B687B617B681B689B693B6161
:10183C007B681B681B6AFB603B681B687A691343F7
:10184C007B613B6923F4407323F003033B613B68EA
:10185C009A683B689B691B0213433A6913433B61CB
:10186C003B6923F4406323F00C033B613B6923F495
:10187C00704323F0F0033B613B68DA683B68DB693B
:10188C001B0213433A6913433B613B681B691A0102
:10189C003B681B6A1B0313433A6913433B61FB68A8
:1018AC0023F02203FB603B685A683B685B691B01B1
:1018BC001343FA681343FB607B681B687A699A6070
:1018CC007B681B683A699A617B681B68FA681A62C4
:1018DC007B68012283F83D20002318461837BD464B
:1018EC0080BD80B582B000AF78607B681B681B69D7
:1018FC0003F00203022B22D17B681B68DB6803F028
:10190C000203022B1BD17B681B686FF002021A6169
:10191C007B6801221A777B681B689B6903F00303C1
:10192C00002B03D0786800F0ADF905E0786800F082
:10193C00A0F9786800F0AFF97B6800221A777B6811
:10194C001B681B6903F00403042B22D17B681B6802
:10195C00DB6803F00403042B1BD17B681B686FF05E
:10196C0004021A617B6802221A777B681B689B69E8
:10197C0003F44073002B03D0786800F083F905E082
:10198C00786800F076F9786800F085F97B680022B9
:10199C001A777B681B681B6903F00803082B22D19C
:1019AC007B681B68DB6803F00803082B1BD17B6882
:1019BC001B686FF008021A617B6804221A777B6837
:1019CC001B68DB6903F00303002B03D0786800F07D
:1019DC0059F905E0786800F04CF9786800F05BF98B
:1019EC007B6800221A777B681B681B6903F0100365
:1019FC00102B22D17B681B68DB6803F01003102BC3
:101A0C001BD17B681B686FF010021A617B6808227F
:101A1C001A777B681B68DB6903F44073002B03D0D7
:101A2C00786800F02FF905E0786800F022F9786802
:101A3C0000F031F97B6800221A777B681B681B6900
:101A4C0003F00103012B0ED17B681B68DB6803F0EC
:101A5C000103012B07D17B681B686FF001021A612F
:101A6C00786800F0FDF87B681B681B6903F0800345
:101A7C00802B0ED17B681B68DB6803F08003802B06
:101A8C0007D17B681B686FF080021A61786800F0E0
:101A9C005AFA7B681B681B6903F04003402B0ED17C
:101AAC007B681B68DB6803F04003402B07D17B6825
:101ABC001B686FF040021A61786800F0F5F87B68DB
:101ACC001B681B6903F02003202B0ED17B681B685D
:101ADC00DB6803F02003202B07D17B681B686FF0B9
:101AEC0020021A61786800F025FA00BF0837BD465D
:101AFC0080BD80B584B000AF786039607B6893F8A6
:101B0C003C30012B01D10223A6E07B68012283F833
:101B1C003C207B68022283F83D207B681B689B6815
:101B2C00FB60FB6823F07703FB60FB6823F47F43C7
:101B3C00FB607B681B68FA689A603B681B68402BEB
:101B4C0067D0402B0BD8102B73D0102B02D8002B46
:101B5C006FD078E0202B6CD0302B6AD073E0702BD8
:101B6C000DD0702B04D8502B33D0602B41D06AE0B1
:101B7C00B3F5805F66D0B3F5005F17D063E07B6888
:101B8C0018683B6899683B685A683B68DB6800F0EA
:101B9C006EF97B681B689B68FB60FB6843F07703FE
:101BAC00FB607B681B68FA689A604CE07B6818687D
:101BBC003B6899683B685A683B68DB6800F057F9EA
:101BCC007B681B689A687B681B6842F480429A6049
:101BDC0039E07B6818683B6859683B68DB681A46D3
:101BEC0000F0CEF87B681B685021184600F025F9F0
:101BFC0029E07B6818683B6859683B68DB681A46C3
:101C0C0000F0ECF87B681B686021184600F015F9B1
:101C1C0019E07B6818683B6859683B68DB681A46B2
:101C2C0000F0AEF87B681B684021184600F005F9FF
:101C3C0009E07B681A683B681B681946104600F07F
:101C4C00FCF800E000BF7B68012283F83D207B6834
:101C5C00002283F83C20002318461037BD4680BD77
:101C6C0080B483B000AF786000BF0C37BD4680BC39
:101C7C00704780B483B000AF786000BF0C37BD46AE
:101C8C0080BC704780B483B000AF786000BF0C3765
:101C9C00BD4680BC704780B483B000AF786000BF95
:101CAC000C37BD4680BC704780B483B000AF786001
:101CBC0000BF0C37BD4680BC7047000080B485B0B7
:101CCC0000AF786039607B681B68FB607B68294AD1
:101CDC0093420BD07B68B3F1804F07D07B68264AC8
:101CEC00934203D07B68254A934208D1FB6823F0CA
:101CFC007003FB603B685B68FA681343FB607B68AE
:101D0C001C4A93420BD07B68B3F1804F07D07B68A1
:101D1C00194A934203D07B68184A934208D1FB6856
:101D2C0023F44073FB603B68DB68FA681343FB6089
:101D3C00FB6823F080023B685B691343FB607B68A4
:101D4C00FA681A603B689A687B68DA623B681A68C2
:101D5C007B689A627B68074A934203D13B681A6995
:101D6C007B681A637B6801225A6100BF1437BD4639
:101D7C0080BC7047002C014000040040000800406B
:101D8C0080B487B000AFF860B9607A60FB681B6AFA
:101D9C007B61FB681B6A23F00102FB681A62FB681B
:101DAC009B693B613B6923F0F0033B617B681B0142
:101DBC003A6913433B617B6923F00A037B617A69BF
:101DCC00BB6813437B61FB683A699A61FB687A696B
:101DDC001A6200BF1C37BD4680BC704780B487B008
:101DEC0000AFF860B9607A60FB681B6A23F01002E0
:101DFC00FB681A62FB689B697B61FB681B6A3B6131
:101E0C007B6923F470437B617B681B037A69134302
:101E1C007B613B6923F0A0033B61BB681B013A6902
:101E2C0013433B61FB687A699A61FB683A691A62F1
:101E3C0000BF1C37BD4680BC704780B485B000AF76
:101E4C00786039607B689B68FB60FB6823F07003EB
:101E5C00FB603A68FB68134343F00703FB607B6845
:101E6C00FA689A6000BF1437BD4680BC704780B4D6
:101E7C0087B000AFF860B9607A603B60FB689B6824
:101E8C007B617B6923F47F437B613B681A027B682F
:101E9C001A43BB6813437A6913437B61FB687A6905
:101EAC009A6000BF1C37BD4680BC704780B485B0BB
:101EBC0000AF786039607B6893F83C30012B01D11E
:101ECC00022332E07B68012283F83C207B680222EB
:101EDC0083F83D207B681B685B68FB607B681B6834
:101EEC009B68BB60FB6823F07003FB603B681B685E
:101EFC00FA681343FB60BB6823F08003BB603B684C
:101F0C005B68BA681343BB607B681B68FA685A60ED
:101F1C007B681B68BA689A607B68012283F83D2055
:101F2C007B68002283F83C20002318461437BD46FA
:101F3C0080BC704780B483B000AF786000BF0C37B2
:101F4C00BD4680BC704780B483B000AF786000BFE2
:101F5C000C37BD4680BC704770B500250C4E0D4C3F
:101F6C00A41BA410A54209D100F022F800250A4EAA
:101F7C000A4CA41BA410A54205D170BD56F82530FF
:101F8C0098470135EEE756F8253098470135F2E7CA
:101F9C00F81F0008F81F0008F81F0008FC1F0008B5
:101FAC0003460244934200D1704703F8011BF9E742
:101FBC00F8B500BFF8BC08BC9E467047F8B500BF2A
:081FCC00F8BC08BC9E467047FA
:101FD40002030405060708090A0B0C0D0E0F101066
:101FE40001020000000000000000000001020304E0
:041FF40006070809CB
:041FF80031010008AB
:041FFC000D010008CB
:0C2000000024F4001000000001000000AB
:04000005080009C91D
:00000001FF
