:020000040800F2
:1000000000500020ED0D0008310D00083D0D0008E6
:10001000430D0008490D00084F0D000800000000C6
:10002000000000000000000000000000550D000866
:10003000610D0008000000006D0D0008790D00083A
:10004000350E0008350E0008350E0008350E000884
:10005000350E0008350E0008350E0008350E000874
:10006000350E0008350E0008350E0008350E000864
:10007000350E0008350E0008350E0008350E000854
:10008000350E0008350E0008350E0008350E000844
:10009000350E0008350E0008350E0008350E000834
:1000A000350E0008350E0008350E0008350E000824
:1000B000350E0008350E0008350E0008350E000814
:1000C000350E0008350E0008350E0008350E000804
:1000D000350E0008350E0008350E0008350E0008F4
:1000E000350E0008350E0008350E0008000000002F
:1000F0000000000000000000000000000000000000
:0C01000000000000000000005FF808F1A3
:1001100010B5054C237833B9044B13B10448AFF341
:1001200000800123237010BD0C000020000000009F
:10013000FC20000808B5034B1BB103490348AFF38B
:10014000008008BD0000000010000020FC20000816
:1001500081F0004102E000BF83F0004330B54FEA78
:1001600041044FEA430594EA050F08BF90EA020FE5
:100170001FBF54EA000C55EA020C7FEA645C7FEA78
:10018000655C00F0E2804FEA5454D4EB5555B8BF9B
:100190006D420CDD2C4480EA020281EA030382EA0C
:1001A000000083EA010180EA020281EA0303362D9E
:1001B00088BF30BD11F0004F4FEA01314FF4801C71
:1001C0004CEA113102D0404261EB410113F0004F83
:1001D0004FEA03334CEA133302D0524263EB43033A
:1001E00094EA050F00F0A780A4F10104D5F1200ED8
:1001F0000DDB02FA0EFC22FA05F2801841F1000133
:1002000003FA0EF2801843FA05F359410EE0A5F106
:1002100020050EF1200E012A03FA0EFC28BF4CF037
:10022000020C43FA05F3C01851EBE37101F00045ED
:1002300007D54FF0000EDCF1000C7EEB00006EEBFA
:100240000101B1F5801F1BD3B1F5001F0CD3490884
:100250005FEA30004FEA3C0C04F101044FEA4452DB
:1002600012F5800F80F09A80BCF1004F08BF5FEA62
:10027000500C50F1000041EB045141EA050130BD42
:100280005FEA4C0C404141EB010111F4801FA4F1E5
:100290000104E9D191F0000F04BF01460020B1FA3A
:1002A00081F308BF2033A3F10B03B3F120020CDA72
:1002B0000C3208DD02F1140CC2F10C0201FA0CF050
:1002C00021FA02F10CE002F11402D8BFC2F1200CB5
:1002D00001FA02F120FA0CFCDCBF41EA0C0190406B
:1002E000E41AA2BF01EB0451294330BD6FEA0404B4
:1002F0001F3C1CDA0C340EDC04F11404C4F120029F
:1003000020FA04F001FA02F340EA030021FA04F3B0
:1003100045EA030130BDC4F10C04C4F1200220FA07
:1003200002F001FA04F340EA0300294630BD21FA45
:1003300004F0294630BD94F0000F83F4801306BF0B
:1003400081F480110134013D4EE77FEA645C18BFFF
:100350007FEA655C29D094EA050F08BF90EA020F96
:1003600005D054EA000C04BF1946104630BD91EA8E
:10037000030F1EBF0021002030BD5FEA545C05D191
:100380004000494128BF41F0004130BD14F58004D0
:100390003CBF01F5801130BD01F0004545F0FE4144
:1003A00041F470014FF0000030BD7FEA645C1ABF79
:1003B000194610467FEA655C1CBF0B46024650EAB0
:1003C000013406BF52EA033591EA030F41F40021DC
:1003D00030BD00BF90F0000F04BF0021704730B562
:1003E0004FF4806404F132044FF000054FF0000137
:1003F00050E700BF90F0000F04BF0021704730B5F8
:100400004FF4806404F1320410F0004548BF4042CC
:100410004FF000013EE700BF42004FEAE2014FEA21
:1004200031014FEA02701FBF12F07F4393F07F4FFC
:1004300081F06051704732F07F4208BF704793F0FF
:100440007F4F04BF41F40021704730B54FF4607412
:1004500001F0004521F000411CE700BF50EA010215
:1004600008BF704730B54FF000050AE050EA0102BE
:1004700008BF704730B511F0004502D5404261EB2E
:1004800041014FF4806404F132045FEA915C3FF46F
:10049000D8AE4FF003025FEADC0C18BF03325FEA0C
:1004A000DC0C18BF033202EBDC02C2F1200300FABD
:1004B00003FC20FA02F001FA03FE40EA0E0021FAE2
:1004C00002F11444BDE600BF70B54FF0FF0C4CF4D0
:1004D000E06C1CEA11541DBF1CEA135594EA0C0F82
:1004E00095EA0C0F00F0DEF82C4481EA030621EABD
:1004F0004C5123EA4C5350EA013518BF52EA0335F8
:1005000041F4801143F4801338D0A0FB02CE4FF0A9
:100510000005E1FB02E506F00042E0FB03E54FF0D9
:100520000006E1FB03569CF0000F18BF4EF0010ED1
:10053000A4F1FF04B6F5007F64F5407404D25FEACD
:100540004E0E6D4146EB060642EAC62141EA555180
:100550004FEAC52040EA5E504FEACE2EB4F1FD0CC2
:1005600088BFBCF5E06F1ED8BEF1004F08BF5FEA40
:10057000500E50F1000041EB045170BD06F00046F2
:1005800046EA010140EA020081EA0301B4EB5C049F
:10059000C2BFD4EB0C0541EA045170BD41F4801197
:1005A0004FF0000E013C00F3AB8014F1360FDEBFBC
:1005B000002001F0004170BDC4F10004203C35DA98
:1005C0000C341BDC04F11404C4F1200500FA05F31B
:1005D00020FA04F001FA05F240EA020001F00042BC
:1005E00021F0004110EBD37021FA04F642EB060132
:1005F0005EEA430E08BF20EAD37070BDC4F10C045C
:10060000C4F1200500FA04F320FA05F001FA04F21F
:1006100040EA020001F0004110EBD37041F100010B
:100620005EEA430E08BF20EAD37070BDC4F1200516
:1006300000FA05F24EEA020E20FA04F301FA05F27E
:1006400043EA020321FA04F001F0004121FA04F226
:1006500020EA020000EBD3705EEA430E08BF20EAF6
:10066000D37070BD94F0000F0FD101F00046400030
:1006700041EB010111F4801F08BF013CF7D041EAB2
:10068000060195F0000F18BF704703F000465200B6
:1006900043EB030313F4801F08BF013DF7D043EA87
:1006A0000603704794EA0C0F0CEA135518BF95EA3D
:1006B0000C0F0CD050EA410618BF52EA4306D1D1C4
:1006C00081EA030101F000414FF0000070BD50EAE3
:1006D000410606BF1046194652EA430619D094EA6D
:1006E0000C0F02D150EA013613D195EA0C0F05D157
:1006F00052EA03361CBF104619460AD181EA0301AB
:1007000001F0004141F0FE4141F470014FF0000062
:1007100070BD41F0FE4141F4780170BD70B54FF0FD
:10072000FF0C4CF4E06C1CEA11541DBF1CEA13557D
:1007300094EA0C0F95EA0C0F00F0A7F8A4EB05045F
:1007400081EA030E52EA03354FEA013100F0888056
:100750004FEA03334FF0805545EA131343EA12631F
:100760004FEA022245EA111545EA10654FEA0026D4
:100770000EF000419D4208BF964244F1FD0404F58D
:10078000407402D25B084FEA3202B61A65EB0305E9
:100790005B084FEA32024FF480104FF4002CB6EBA6
:1007A000020E75EB030E22BFB61A754640EA0C0026
:1007B0005B084FEA3202B6EB020E75EB030E22BF66
:1007C000B61A754640EA5C005B084FEA3202B6EBA7
:1007D000020E75EB030E22BFB61A754640EA9C0066
:1007E0005B084FEA3202B6EB020E75EB030E22BF36
:1007F000B61A754640EADC0055EA060E18D04FEAF4
:10080000051545EA16754FEA06164FEAC30343EA93
:1008100052734FEAC2025FEA1C1CC0D111F4801F60
:100820000BD141EA00014FF000004FF0004CB6E759
:1008300011F4801F04BF01430020B4F1FD0C88BFF8
:10084000BCF5E06F3FF6AFAEB5EB030C04BFB6EB03
:10085000020C5FEA500C50F1000041EB045170BDF6
:100860000EF0004E4EEA113114EB5C04C2BFD4EB23
:100870000C0541EA045170BD41F480114FF0000EA7
:10088000013C90E645EA060E8DE60CEA135594EA23
:100890000C0F08BF95EA0C0F3FF43BAF94EA0C0F26
:1008A0000AD150EA01347FF434AF95EA0C0F7FF49B
:1008B00025AF104619462CE795EA0C0F06D152EAEF
:1008C00003353FF4FDAE1046194622E750EA4106D3
:1008D00018BF52EA43067FF4C5AE50EA41047FF4E4
:1008E0000DAF52EA43057FF4EBAE12E74A0011D296
:1008F00012F5001211D20DD56FF47873B3EB62527A
:100900000ED44FEAC12343F0004343EA505323FA85
:1009100002F070474FF00000704750EA013002D1FA
:100920004FF0FF3070474FF00000704780B483B045
:1009300000AF0346FB80084B1B6800225A6200BFD1
:10094000054B1B685A6AFB889A42F9D300BF0C37E3
:10095000BD4680BC704700BF3000002080B500AFAE
:100960001C4B00221A6000224FF480511A4800F0FC
:100970003CFD0220FFF7DAFF01224FF480511648B8
:1009800000F033FD0A20FFF7D1FF00224FF4805121
:10099000114800F02AFD00BF4FF400510E4800F04E
:1009A0000DFD0346002BF7D007E00A4B1B6801330F
:1009B000084A13600120FFF7B9FF4FF400510648C1
:1009C00000F0FCFC0346002BEFD1024B1B681846DD
:1009D00080BD00BF2C000020000C01400000000082
:1009E00098B500AF1A4801F046F9194B1B68002270
:1009F0005A6200F021FA00F033F800F0C7F800F076
:100A000075F8FFF7ABFF0246124B1A60114B1B68DB
:100A10001846FFF7DFFC0CA3D3E90023FFF754FDD2
:100A200003460C4618462146FFF760FF02460A4B74
:100A30001A604FF40051094800F0EFFC4FF4FA70CF
:100A400000F05CFADDE700BF9CC420B07268A13FF3
:100A5000300000202800002070000020001001401D
:100A600080B590B000AF07F1180328220021184686
:100A700001F03CFB3B1D00221A605A609A60DA606C
:100A80001A610123BB614FF48033FB6100233B6299
:100A90000123BB6202237B634FF48033BB634FF4BB
:100AA000E013FB6307F11803184600F0CFFC034680
:100AB000002B01D000F0E6F80F237B600223BB601F
:100AC0000023FB604FF480633B6100237B613B1D8F
:100AD0000221184600F03AFF0346002B01D000F037
:100AE000D1F800BF4037BD4680BD000080B586B05C
:100AF00000AF07F1080300221A605A609A60DA60BA
:100B00003B4600221A605A601E4B1F4A1A601D4B5A
:100B100047225A601B4B00229A601A4B4FF6FE7216
:100B2000DA60184B00221A61164B00225A61154BED
:100B300000229A61134801F073F80346002B01D09C
:100B400000F0A0F84FF48053BB6007F1080319468A
:100B50000C4801F0B3F80346002B01D000F092F8E6
:100B600000233B6000237B603B461946054801F0AB
:100B700055FA0346002B01D000F084F800BF183767
:100B8000BD4680BD30000020002C014080B588B0FB
:100B900000AF07F1100300221A605A609A60DA6011
:100BA000354B9B69344A43F010039361324B9B6988
:100BB00003F01003FB60FB682F4B9B692E4A43F048
:100BC000200393612C4B9B6903F02003BB60BB683F
:100BD000294B9B69284A43F008039361264B9B6984
:100BE00003F008037B607B68234B9B69224A43F038
:100BF00004039361204B9B6903F004033B603B6853
:100C000000224FF400511D4800F0EFFB00224FF48A
:100C100080511B4800F0E9FB4FF400533B61012376
:100C20007B610023BB610223FB6107F110031946BE
:100C3000124800F069FA4FF480533B6101237B6155
:100C40000023BB610223FB6107F1100319460C4826
:100C500000F05AFA4FF400533B6100237B610023FC
:100C6000BB6107F110031946054800F04DFA00BFBB
:100C70002037BD4680BD00BF00100240001001407B
:100C8000000C014080B400AF00BFBD4680BC70477F
:100C900080B485B000AF154B9B69144A43F0010343
:100CA0009361124B9B6903F00103BB60BB680F4B60
:100CB000DB690E4A43F08053D3610C4BDB6903F0D0
:100CC00080537B607B680A4B5B68FB60FB6823F0AA
:100CD000E063FB60FB6843F00073FB60044AFB6861
:100CE000536000BF1437BD4680BC704700100240FF
:100CF0000000014080B485B000AF78607B681B685D
:100D0000094A93420BD1094B9B69084A43F400639B
:100D10009361064B9B6903F40063FB60FB6800BFB3
:100D20001437BD4680BC7047002C014000100240C3
:100D300080B400AF00BFBD4680BC704780B400AF38
:100D4000FEE780B400AFFEE780B400AFFEE780B4FA
:100D500000AFFEE780B400AF00BFBD4680BC704767
:100D600080B400AF00BFBD4680BC704780B400AF08
:100D700000BFBD4680BC704780B500AF00F0A2F850
:100D800000BF80BD80B400AF154B1B68144A43F010
:100D900001031360124B5A681149124B13404B6008
:100DA0000F4B1B680E4A23F0847323F480331360C7
:100DB0000B4B1B680A4A23F480231360084B5B68C3
:100DC000074A23F4FE035360054B4FF41F029A6059
:100DD000054B4FF000629A6000BFBD4680BC704773
:100DE000001002400000FFF800ED00E0002103E0E9
:100DF0000B4B5B58435004310A480B4B42189A4244
:100E0000F6D30A4A02E0002342F8043B084B9A4218
:100E1000F9D3FFF7B7FF01F045F9FFF7E1FD7047A0
:100E200040210008000000200C0000200C000020E1
:100E300078000020FEE7000080B500AF084B1B687B
:100E4000074A43F010031360032000F029F9002043
:100E500000F008F8FFF71CFF0023184680BD00BF14
:100E60000020024080B582B000AF7860124B1A6853
:100E7000124B1B7819464FF47A73B3FBF1F3B2FBB4
:100E8000F3F3184600F033F90346002B01D0012399
:100E90000EE07B680F2B0AD8002279684FF0FF30F4
:100EA00000F009F9064A7B681360002300E0012383
:100EB00018460837BD4680BD00000020080000200D
:100EC0000400002080B400AF054B1B781A46054B88
:100ED0001B681344034A136000BFBD4680BC7047C3
:100EE000080000207400002080B400AF024B1B6893
:100EF0001846BD4680BC70477400002080B584B0A1
:100F000000AF7860FFF7F0FFB8607B68FB60FB68BC
:100F1000B3F1FF3F05D0094B1B781A46FB68134419
:100F2000FB6000BFFFF7E0FF0246BB68D31AFA6818
:100F30009A42F7D800BF1037BD4680BD0800002098
:100F400080B485B000AF78607B6803F00703FB6076
:100F50000C4BDB68BB60BA684FF6FF031340BB6005
:100F6000FB681A02BB68134343F0BF6343F40033CA
:100F7000BB60044ABB68D36000BF1437BD4680BC69
:100F8000704700BF00ED00E080B400AF044BDB68A9
:100F90001B0A03F007031846BD4680BC704700BF1C
:100FA00000ED00E080B483B000AF03463960FB7110
:100FB00097F90730002B0ADB3B68DAB20C4997F946
:100FC00007301201D2B20B4483F800230AE03B68D9
:100FD000DAB20849FB7903F00F03043B1201D2B2E5
:100FE0000B441A7600BF0C37BD4680BC704700BF6B
:100FF00000E100E000ED00E080B489B000AFF860EF
:10100000B9607A60FB6803F00703FB61FB69C3F119
:101010000703042B28BF0423BB61FB690433062BA1
:1010200002D9FB69033B00E000237B614FF0FF32F4
:10103000BB6902FA03F3DA43BB681A407B699A4042
:101040004FF0FF317B6901FA03F3D9437B680B4012
:10105000134318462437BD4680BC704780B582B024
:1010600000AF78607B68013BB3F1807F01D301233F
:101070000FE00A4A7B68013B53600F214FF0FF30BD
:10108000FFF790FF054B00229A60044B07221A607D
:10109000002318460837BD4680BD00BF10E000E0C1
:1010A00080B582B000AF78607868FFF749FF00BF75
:1010B0000837BD4680BD80B586B000AF0346B96035
:1010C0007A60FB7300237B61FFF75EFF78617A68CB
:1010D000B9687869FFF790FF024697F90F3011461B
:1010E0001846FFF75FFF00BF1837BD4680BD80B5CB
:1010F00082B000AF78607868FFF7B0FF034618460B
:101100000837BD4680BD000080B48BB000AF78606A
:10111000396000237B6200233B6227E101227B6A66
:1011200002FA03F3FB613B681B68FA691340BB6179
:10113000BA69FB699A4240F016813B685B68122BE2
:1011400034D0122B0DD8022B2BD0022B04D8002B1D
:1011500031D0012B1CD048E0032B43D0112B1BD0E6
:1011600043E0894A934226D0874A934206D8874A69
:10117000934220D0864A93421DD036E0854A93425E
:1011800019D0854A934216D0844A934213D02CE05A
:101190003B68DB683B6228E03B68DB6804333B620A
:1011A00023E03B68DB6808333B621EE03B68DB689A
:1011B0000C333B6219E03B689B68002B02D104238F
:1011C0003B6212E03B689B68012B05D108233B6220
:1011D0007B68FA691A6108E008233B627B68FA6958
:1011E0005A6102E000233B6200BFBB69FF2B01D8BC
:1011F0007B6801E07B6804337B61BB69FF2B02D80D
:101200007B6A9B0002E07B6A083B9B003B617B6939
:101210001A680F213B6901FA03F3DB431A40396A6C
:101220003B6901FA03F31A437B691A603B685B6808
:1012300003F08053002B00F09680594B9B69584A6D
:1012400043F001039361564B9B6903F00103BB60BC
:10125000BB68544A7B6A9B08023352F82330FB6018
:101260007B6A03F003039B000F2202FA03F3DB43C4
:10127000FA681340FB607B684B4A934213D07B684B
:101280004A4A93420DD07B68494A934207D07B6813
:10129000484A934201D1032306E0042304E00223D9
:1012A00002E0012300E000237A6A02F003029200C8
:1012B0009340FA681343FB603A497B6A9B08023308
:1012C000FA6841F823203B685B6803F48033002B05
:1012D00006D0394B1A683849BB6913430B6006E0E6
:1012E000354B1A68BB69DB43334913400B603B68DD
:1012F0005B6803F40033002B06D02F4B5A682E494D
:10130000BB6913434B6006E02B4B5A68BB69DB4358
:10131000294913404B603B685B6803F48013002B42
:1013200006D0254B9A682449BB6913438B6006E0BD
:10133000214B9A68BB69DB431F4913408B603B68B4
:101340005B6803F40013002B06D01B4BDA681A49C4
:10135000BB691343CB6006E0174BDA68BB69DB431C
:1013600015491340CB607B6A01337B623B681A6886
:101370007B6A22FA03F3002B7FF4D0AE00BF2C3738
:10138000BD4680BC704700BF000021100000111056
:101390000000121000003110000032100000221076
:1013A000001002400000014000080140000C014014
:1013B00000100140001401400004014080B485B0D9
:1013C00000AF78600B467B807B689A687B8813400F
:1013D000002B02D00123FB7301E00023FB73FB7B96
:1013E00018461437BD4680BC704780B483B000AF48
:1013F00078600B467B8013467B707B78002B03D094
:101400007A887B681A6103E07B881A047B681A611A
:1014100000BF0C37BD4680BC704780B483B000AFBE
:1014200078600B467B807B68DA687B881340002BF2
:1014300003D07A887B685A6102E07A887B681A61F7
:1014400000BF0C37BD4680BC7047000080B586B039
:1014500000AF78607B68002B01D101236CE27B68D0
:101460001B6803F00103002B00F08780924B5B6840
:1014700003F00C03042B0CD08F4B5B6803F00C03C0
:10148000082B12D18C4B5B6803F48033B3F5803F9B
:101490000BD1894B1B6803F40033002B6CD07B68A5
:1014A0005B68002B68D1012346E27B685B68B3F57B
:1014B000803F06D1804B1B687F4A43F48033136022
:1014C0002EE07B685B68002B0CD17B4B1B687A4A53
:1014D00023F480331360784B1B68774A23F480230E
:1014E00013601DE07B685B68B3F5A02F0CD1724BD5
:1014F0001B68714A43F4802313606F4B1B686E4A6C
:1015000043F4803313600BE06B4B1B686A4A23F48F
:1015100080331360684B1B68674A23F48023136091
:101520007B685B68002B13D0FFF7DEFC386108E0B6
:10153000FFF7DAFC02463B69D31A642B01D9032377
:10154000FAE15D4B1B6803F40033002BF0D014E08C
:10155000FFF7CAFC386108E0FFF7C6FC02463B69AA
:10156000D31A642B01D90323E6E1534B1B6803F420
:101570000033002BF0D100E000BF7B681B6803F054
:101580000203002B63D04C4B5B6803F00C03002B71
:101590000BD0494B5B6803F00C03082B1CD1464B66
:1015A0005B6803F48033002B16D1434B1B6803F0B8
:1015B0000203002B05D07B681B69012B01D001239E
:1015C000BAE13D4B1B6823F0F8027B685B69DB00E6
:1015D000394913430B603AE07B681B69002B20D02C
:1015E000364B01221A60FFF77FFC386108E0FFF7F5
:1015F0007BFC02463B69D31A022B01D903239BE1F2
:101600002D4B1B6803F00203002BF0D02A4B1B6804
:1016100023F0F8027B685B69DB00274913430B600A
:1016200015E0264B00221A60FFF75EFC386108E0E7
:10163000FFF75AFC02463B69D31A022B01D9032358
:101640007AE11D4B1B6803F00203002BF0D17B688D
:101650001B6803F00803002B3AD07B689B69002BC2
:1016600019D0174B01221A60FFF73EFC386108E0E1
:10167000FFF73AFC02463B69D31A022B01D9032338
:101680005AE10D4B5B6A03F00203002BF0D00120FE
:1016900000F0A8FA1CE00A4B00221A60FFF724FCB5
:1016A00038610FE0FFF720FC02463B69D31A022B9A
:1016B00008D9032340E100BF00100240000042426D
:1016C000800442429E4B5B6A03F00203002BE9D187
:1016D0007B681B6803F00403002B00F0A680002346
:1016E000FB75974BDB6903F08053002B0DD1944BB6
:1016F000DB69934A43F08053D361914BDB6903F07C
:101700008053BB60BB680123FB758E4B1B6803F4E1
:101710008073002B18D18B4B1B688A4A43F480736B
:101720001360FFF7E1FB386108E0FFF7DDFB0246DD
:101730003B69D31A642B01D90323FDE0814B1B685D
:1017400003F48073002BF0D07B68DB68012B06D19B
:101750007B4B1B6A7A4A43F0010313622DE07B68DE
:10176000DB68002B0CD1764B1B6A754A23F0010312
:101770001362734B1B6A724A23F0040313621CE06A
:101780007B68DB68052B0CD16D4B1B6A6C4A43F000
:10179000040313626A4B1B6A694A43F00103136234
:1017A0000BE0674B1B6A664A23F001031362644B2C
:1017B0001B6A634A23F0040313627B68DB68002B17
:1017C00015D0FFF791FB38610AE0FFF78DFB024669
:1017D0003B69D31A41F28832934201D90323ABE02B
:1017E000574B1B6A03F00203002BEED014E0FFF707
:1017F0007BFB38610AE0FFF777FB02463B69D31AAF
:1018000041F28832934201D9032395E04C4B1B6A85
:1018100003F00203002BEED1FB7D012B05D1484BD9
:10182000DB69474A23F08053D3617B68DB69002B77
:1018300000F08180424B5B6803F00C03082B61D001
:101840007B68DB69022B46D13F4B00221A60FFF711
:101850004BFB386108E0FFF747FB02463B69D31AB0
:10186000022B01D9032367E0354B1B6803F000739B
:10187000002BF0D17B681B6AB3F5803F08D1304B59
:101880005B6823F400327B689B682D4913434B60EF
:101890002B4B5B6823F474127B68196A7B685B6A64
:1018A0000B43274913434B60274B01221A60FFF774
:1018B0001BFB386108E0FFF717FB02463B69D31AB0
:1018C000022B01D9032337E01D4B1B6803F0007383
:1018D000002BF0D02FE01C4B00221A60FFF704FB16
:1018E000386108E0FFF700FB02463B69D31A022B80
:1018F00001D9032320E0124B1B6803F00073002B77
:10190000F0D118E07B68DB69012B01D1012313E0E2
:101910000B4B5B68FB60FB6803F480327B681B6ADF
:101920009A4206D1FB6803F470127B685B6A9A42A4
:1019300001D0012300E0002318461837BD4680BDC2
:1019400000100240007000406000424280B584B048
:1019500000AF786039607B68002B01D10123D0E0B3
:101960006A4B1B6803F007033A689A4210D9674B29
:101970001B6823F0070265493B6813430B60634B08
:101980001B6803F007033A689A4201D00123B8E0CC
:101990007B681B6803F00203002B20D07B681B6868
:1019A00003F00403002B05D0594B5B68584A43F4FD
:1019B000E06353607B681B6803F00803002B05D0CD
:1019C000534B5B68524A43F460535360504B5B681F
:1019D00023F0F0027B689B684D4913434B607B68A2
:1019E0001B6803F00103002B40D07B685B68012B70
:1019F00007D1474B1B6803F40033002B15D101239B
:101A00007FE07B685B68022B07D1414B1B6803F0CA
:101A10000073002B09D1012373E03D4B1B6803F0D9
:101A20000203002B01D101236BE0394B5B6823F0EB
:101A300003027B685B68364913434B60FFF754FA37
:101A4000F8600AE0FFF750FA0246FB68D31A41F249
:101A50008832934201D9032353E02D4B5B6803F096
:101A60000C027B685B689B009A42EBD1274B1B689A
:101A700003F007033A689A4210D2244B1B6823F004
:101A8000070222493B6813430B60204B1B6803F09D
:101A900007033A689A4201D0012332E07B681B6851
:101AA00003F00403002B08D0194B5B6823F4E062B9
:101AB0007B68DB68164913434B607B681B6803F047
:101AC0000803002B09D0124B5B6823F460527B683B
:101AD0001B69DB000E4913434B6000F021F80146FF
:101AE0000B4B5B681B0903F00F030A4AD35C21FA16
:101AF00003F3094A1360094B1B681846FFF7B2F954
:101B0000002318461037BD4680BD00BF00200240AC
:101B100000100240282100080000002004000020DE
:101B200090B48AB000AF2A4B3C1D0FCB84E80F0065
:101B3000284B1B883B800023FB610023BB610023F3
:101B40007B6200237B6100233B62234B5B68FB616C
:101B5000FB6903F00C03042B02D0082B03D02DE00B
:101B60001E4B3B622DE0FB699B0C03F00F0307F15A
:101B70002802134413F8243C7B61FB6903F480338F
:101B8000002B13D0144B5B685B0C03F0010307F1CF
:101B90002802134413F8283CBB617B690F4A02FBFF
:101BA00003F2BB69B2FBF3F37B6204E07B690C4A8E
:101BB00002FB03F37B627B6A3B6202E0074B3B6202
:101BC00000BF3B6A18462837BD4690BC704700BF2F
:101BD00014210008242100080010024000127A009D
:101BE00000093D0080B485B000AF78600A4B1B68E7
:101BF0000A4AA2FB03235B0A7A6802FB03F3FB6039
:101C000000BFFB685A1EFA60002BF9D100BF1437E1
:101C1000BD4680BC704700BF00000020D34D62105D
:101C200080B582B000AF78607B68002B01D10123C2
:101C30001DE07B6893F83D30DBB2002B06D17B685A
:101C4000002283F83C207868FFF754F87B68022272
:101C500083F83D207B681A687B6804331946104678
:101C600000F0E4F87B68012283F83D200023184649
:101C70000837BD4680BD80B485B000AF78607B6812
:101C8000022283F83D207B681B689B6803F00703F2
:101C9000FB60FB68062B07D07B681B681A687B68B3
:101CA0001B6842F001021A607B68012283F83D2024
:101CB000002318461437BD4680BC704780B584B0F9
:101CC00000AF786039607B6893F83C30012B01D11C
:101CD0000223A6E07B68012283F83C207B68022275
:101CE00083F83D207B681B689B68FB60FB6823F0E2
:101CF0007703FB60FB6823F47F43FB607B681B6812
:101D0000FA689A603B681B68402B67D0402B0BD861
:101D1000102B73D0102B02D8002B6FD078E0202B23
:101D20006CD0302B6AD073E0702B0DD0702B04D8A0
:101D3000502B33D0602B41D06AE0B3F5805F66D082
:101D4000B3F5005F17D063E07B6818683B6899685B
:101D50003B685A683B68DB6800F041F97B681B68A8
:101D60009B68FB60FB6843F07703FB607B681B6844
:101D7000FA689A604CE07B6818683B6899683B6831
:101D80005A683B68DB6800F02AF97B681B689A6830
:101D90007B681B6842F480429A6039E07B6818686F
:101DA0003B6859683B68DB681A4600F0A1F87B681D
:101DB0001B685021184600F0F8F829E07B68186885
:101DC0003B6859683B68DB681A4600F0BFF87B68DF
:101DD0001B686021184600F0E8F819E07B68186875
:101DE0003B6859683B68DB681A4600F081F87B68FD
:101DF0001B684021184600F0D8F809E07B681A6893
:101E00003B681B681946104600F0CFF800E000BFA1
:101E10007B68012283F83D207B68002283F83C2008
:101E2000002318461037BD4680BD000080B485B041
:101E300000AF786039607B681B68FB607B68294A6B
:101E400093420BD07B68B3F1804F07D07B68264A62
:101E5000934203D07B68254A934208D1FB6823F064
:101E60007003FB603B685B68FA681343FB607B6848
:101E70001C4A93420BD07B68B3F1804F07D07B683C
:101E8000194A934203D07B68184A934208D1FB68F1
:101E900023F44073FB603B68DB68FA681343FB6024
:101EA000FB6823F080023B685B691343FB607B683F
:101EB000FA681A603B689A687B68DA623B681A685D
:101EC0007B689A627B68074A934203D13B681A6930
:101ED0007B681A637B6801225A6100BF1437BD46D4
:101EE00080BC7047002C0140000400400008004006
:101EF00080B487B000AFF860B9607A60FB681B6A95
:101F00007B61FB681B6A23F00102FB681A62FB68B5
:101F10009B693B613B6923F0F0033B617B681B01DC
:101F20003A6913433B617B6923F00A037B617A6959
:101F3000BB6813437B61FB683A699A61FB687A6905
:101F40001A6200BF1C37BD4680BC704780B487B0A2
:101F500000AFF860B9607A60FB681B6A23F010027A
:101F6000FB681A62FB689B697B61FB681B6A3B61CB
:101F70007B6923F470437B617B681B037A6913439D
:101F80007B613B6923F0A0033B61BB681B013A699D
:101F900013433B61FB687A699A61FB683A691A628C
:101FA00000BF1C37BD4680BC704780B485B000AF11
:101FB000786039607B689B68FB60FB6823F0700386
:101FC000FB603A68FB68134343F00703FB607B68E0
:101FD000FA689A6000BF1437BD4680BC704780B471
:101FE00087B000AFF860B9607A603B60FB689B68BF
:101FF0007B617B6923F47F437B613B681A027B68CA
:102000001A43BB6813437A6913437B61FB687A699F
:102010009A6000BF1C37BD4680BC704780B485B055
:1020200000AF786039607B6893F83C30012B01D1B8
:10203000022332E07B68012283F83C207B68022285
:1020400083F83D207B681B685B68FB607B681B68CE
:102050009B68BB60FB6823F07003FB603B681B68F8
:10206000FA681343FB60BB6823F08003BB603B68E6
:102070005B68BA681343BB607B681B68FA685A6088
:102080007B681B68BA689A607B68012283F83D20F0
:102090007B68002283F83C20002318461437BD4695
:1020A00080BC704770B500250C4E0D4CA41BA410CD
:1020B000A54209D100F022F800250A4E0A4CA41BC3
:1020C000A410A54205D170BD56F8253098470135BA
:1020D000EEE756F8253098470135F2E73821000839
:1020E00038210008382100083C210008034602443A
:1020F000934200D1704703F8011BF9E7F8B500BF20
:10210000F8BC08BC9E467047F8B500BFF8BC08BCD8
:042110009E46704730
:1021140002030405060708090A0B0C0D0E0F101024
:10212400010200000000000000000000010203049E
:042134000607080989
:042138003501000865
:04213C001101000885
:0C2140000024F40010000000010000006A
:0400000508000DEDF5
:00000001FF
